:020000040800F2
:100000005825002029020008BF220008A921000865
:10001000BD220008830400087540000800000000AD
:100020000000000000000000000000003D24000867
:10003000F9060008000000003B24000849240008DD
:10004000430200084302000843020008430200087C
:10005000430200084302000843020008430200086C
:10006000430200084302000843020008430200085C
:10007000430200084302000843020008430200084C
:10008000430200084302000843020008430200083C
:1000900085040008430200084302000843020008E8
:1000A000430200084302000843020008430200081C
:1000B000430200084302000843020008430200080C
:1000C00043020008430200084302000843020008FC
:1000D00043020008430200084302000843020008EC
:1000E00043020008430200084302000843020008DC
:1000F00043020008430200084302000843020008CC
:1001000043020008430200084302000843020008BB
:1001100043020008430200084302000843020008AB
:10012000430200084302000843020008430200089B
:10013000430200084302000843020008430200088B
:10014000430200084302000843020008C1220008DD
:10015000430200084302000843020008430200086B
:10016000430200084302000843020008430200085B
:100170004302000843020008430200080000000098
:10018000430200084302000800F002F800F03CF8C7
:100190000AA090E8000C82448344AAF10107DA45E2
:1001A00001D100F031F8AFF2090EBAE80F0013F0F8
:1001B000010F18BFFB1A43F00103184780400000ED
:1001C000A0400000103A24BF78C878C1FAD852077E
:1001D00024BF30C830C144BF04680C6070470000C1
:1001E0000023002400250026103A28BF78C1FBD840
:1001F000520728BF30C148BF0B6070471FB504F0DD
:100200000FF81FBD10B510BD00F001F91146FFF742
:10021000F5FF03F041FF00F01FF903B4FFF7F2FF11
:1002200003BC00F027F9000009488047094800474F
:10023000FEE7FEE7FEE7FEE7FEE7FEE7FEE7FEE796
:10024000FEE7FEE704480549054A064B70470000F3
:10025000E124000889010008581F002058250020CB
:10026000582100205821002053EA020C00F0698038
:100270002DE9F04B4FF00006002B1FBFB3FA83F5BA
:1002800003FA05F424FA05F65E4012BF1643B2FAEB
:1002900082F502FA05F4C5F120051EBF22FA05FC1D
:1002A00044EA0C04203556EA044C4FEA144418BFC3
:1002B000641C4FF000084FF00009904271EB030CF2
:1002C00039D3002919BFB1FA81F701FA07F6B0FA5C
:1002D00080F700FA07F6C7F120071EBF20FA07FCD7
:1002E00046EA0C062037B6FBF4FCA7EB0507103FE7
:1002F00007F01F0BCBF120060CFA0BFB2CFA06F6CD
:1003000044BFB3460026202FA4BF5E464FF0000B2B
:100310005BEA060C08BF4FF0010B19EB0B09ABFBB6
:10032000027C48EB0608C01B06FB02CC0BFB03CC8F
:1003300071EB0C01C1E70B46024641464846BDE859
:10034000F08B13B54FF000004FF00001AFF30080C9
:10035000BDE81C40704710B5203AC0F00B80B1E8F2
:100360001850203AA0E81850B1E81850A0E81850EA
:10037000BFF4F5AF5FEA027C24BFB1E81850A0E8F3
:10038000185044BF18C918C0BDE810405FEA827C0D
:1003900024BF51F8043B40F8043B08BF7047D20724
:1003A00028BF31F8023B48BF11F8012B28BF20F8C5
:1003B000023B48BF00F8012B70474FF0000200B528
:1003C000134694469646203922BFA0E80C50A0E878
:1003D0000C50B1F12001BFF4F7AF090728BFA0E826
:1003E0000C5048BF0CC05DF804EB890028BF40F8F2
:1003F000042B08BF704748BF20F8022B11F0804F34
:1004000018BF00F8012B704770477047704775465A
:1004100000F02CF8AE4605006946534620F0070070
:10042000854618B020B5FFF70DFFBDE820404FF01E
:1004300000064FF000074FF000084FF0000B21F0CE
:100440000701AC46ACE8C009ACE8C009ACE8C0099B
:10045000ACE8C0098D46704710B50446AFF3008084
:100460002046BDE81040FFF7D8BE000000487047A6
:10047000F41E002001491820ABBEFEE72600020052
:100480007047FEE7014800F0C2BA0000EC0200200D
:100490000020704710B503F0D5FC002010BD00000F
:1004A00010B500220549064802F008FA054904483B
:1004B00002F0F7F903F0C6FC002010BDF00F002099
:1004C00014030020F007002010B50446088881B20C
:1004D000204600F011F82146034802F0E2F90248F4
:1004E00002F0B8F9002010BD1403002010B503F08D
:1004F000A9FC002010BD00000C4B10B50A46D3F833
:10050000BC1293F89C32032B05D121B1D1F81412FF
:1005100019B1012010BD032010BD0146034802F0AF
:10052000CDF9BDE81040014802F042BA14030020A2
:10053000FB2100F0BBB8FD2100F0B8B8FC2100F0B1
:10054000B5B8B4EEE00AF1EE10FA02D2B0EE600AED
:1005500008E0F0EE411AB4EEE10AF1EE10FA01DD26
:10056000B0EE410A70EE601A00EE100A71EE600AF9
:10057000B8EE400A21EE800A80EE201ABCEEC10AD5
:1005800010EE100A80B2704718B1034908600020CD
:100590007047012070470000000000202DE9F04363
:1005A00081462DED048BF0EE419AB0EE608A83B067
:1005B000F0EE428AB0EE619A4FF6FF70B2EE091A81
:1005C000FAEE090AFFF7BDFF054640F6FF78404600
:1005D000B3EE041AFBEE040AB0EE480AFFF7B1FFCF
:1005E0009FED228A074640469FED1F1AF0EE480A0B
:1005F000B0EE690AFFF7A5FF04464046B1EE041AC3
:10060000F0EE480AB0EE490AFFF79BFF0646404667
:10061000B3EE0C1AFBEE0C0AB0EE680AFFF791FF7E
:100620000146280A8DF800008DF8015038098DF830
:100630000200380140EA14208DF803008DF80440D0
:1006400030098DF80500300140EA11208DF80600D0
:100650008DF8071099F80000694600F009F803B01A
:10066000BDEC048BBDE8F0830000FA4300000000FD
:1006700070B50D4C054688B00E46206800F0B1F903
:1006800080B10020CDE9005008210290CDE903019E
:100690008DF8140006AB32466946206800F041F838
:1006A00008B070BD0220FBE7000000201CB506A3C7
:1006B000D3E90023CDE900238DF8071000786946BF
:1006C000FFF7D6FF1CBD0000FFFFFFFFFFFFFF008D
:1006D000FE21FFF7EBBF30EEC01A00EE900AF8EEF5
:1006E000600A21EE201A00EE901AF8EE601AC1EEB0
:1006F000210A30EE800A7047704772B6FEE790F824
:100700002020012A07D0022A05D0416A41F4802125
:10071000416201207047006842690A43426100203B
:100720007047F0B590F820500468A468012D05D0FA
:10073000022D03D0416A41F480214DE014F0406F56
:1007400001D1E50045D5C4F301640125A5401D6034
:100750008D684FF4C0739DB1CE6835434E6845EA4D
:10076000C605066803EB0417F5514FF4C275076818
:1007700005EB04150E697E51097D012905D009E0BC
:100780000E88CD6845EA4655EBE701684E5946F4B8
:1007900080764E511179D2F805504FF4C67641EA71
:1007A0000521056806EB0416A9511178D2F801203D
:1007B0004FF4C47541EA0221026805EB041551515A
:1007C000006803EB0411425842F00102425000203D
:1007D000F0BD416A41F4001141620120F0BD00000A
:1007E00010B590F82020012A07D0022A05D0416ACE
:1007F00041F480214162012010BD3B48D0F8002225
:1008000042F00102C0F80022D0F8002222F47C520B
:10081000C0F80022D0F800224B6A42EA0322C0F856
:1008200000220A7D02F01F0301229A40D0F81C32F8
:100830009343C0F81C32CB69B3B9D0F80C32934360
:10084000C0F80C328C894B6864F31F434C6900EB91
:10085000C404C4F840320C890B6864F31F434C692C
:1008600000EBC404C4F84432CB69012B16D1D0F894
:100870000C321343C0F80C320C884B6864F31F43EE
:100880004C6900EBC404C4F840320C89CB6864F3B3
:100890001F434C6900EBC404C4F844328B69002B3D
:1008A000D0F804320ED01343C0F804320B69002B89
:1008B000D0F8143208D01343C0F81432096A012961
:1008C00004D008E09343EFE79343F5E7D0F81C1218
:1008D0001143C0F81C12D0F8001221F00101C0F839
:1008E0000012002010BD000000640040704770B589
:1008F00090F82040012C05D0022C03D0416A41F42D
:10090000802128E0046809B32469A40720D04FF4AB
:10091000D874056804EB01142D5915F00405956091
:1009200005682D591AD0ED08556005682C5904F05A
:100930000204D4604FF4DA74056804EB01142E59F4
:1009400006F00F06082E0CD308250DE0E468DCE75E
:10095000416A41F400114162012070BD6D0D1560C6
:10096000E3E72D5905F00F05156105682D59C5F30D
:100970000725956105682C59240C54614FF4DC72ED
:10098000046802EB0112A4581C700468A458240ADD
:100990005C700468A458240C9C700468A258120E61
:1009A000DA704FF4DE72046802EB0112A4581C7175
:1009B0000468A458240A5C710468A458240C9C712F
:1009C0000468A258120EDA71006829B1016941F079
:1009D00020010161002070BDC16841F02001C160AB
:1009E000F8E70246002092F82010012901D00229E0
:1009F0000CD111688A68520100D501208A68120161
:100A000000D5401C8968C90000D5401C70472DE9FD
:100A1000F05F0546006800244669D0F804908768B6
:100A2000D0F80CB0D0F810A0D0F81880F10748D05A
:100A3000F90714D001218160B80703D5284600F0DA
:100A40004CFA0CE0780702D54FF4006407E0380751
:100A500002D54FF4805402E0284600F03DFAF80534
:100A600016D529684FF480708860B80503D52846EC
:100A700000F035FA0CE0780502D544F4005407E0A4
:100A8000380502D544F4804402E0284600F026FAF6
:100A9000F80316D529684FF480308860B80303D571
:100AA000284600F01EFA0CE0780302D544F4004416
:100AB00007E0380302D544F4803402E0284600F011
:100AC0000FFA300707D55FEACB6004D529681020FC
:100AD00044F40074C86070074FF0080707D55FEA58
:100AE0000B7004D52868C760284600F057F9B00796
:100AF00006D52868C068800702D0284600F050F963
:100B0000700607D55FEACA6004D52968102044F44E
:100B100080640861B00607D55FEA0A7004D52868CA
:100B20000761284600F0A8F9F00606D52868006994
:100B3000800702D0284600F0A0F9B00308D55FEA8C
:100B4000C96005D5296810204860284600F096F94C
:100B5000F00307D55FEA097004D528684760284686
:100B600000F0C0F9300446D55FEA497040D5F00581
:100B700004D55FEAC87001D044F00104B00504D583
:100B80005FEA887001D544F00204700504D55FEA7D
:100B9000487001D544F00404300529D518F0700FD1
:100BA00026D008F07000402815D006DC102809D0A7
:100BB00020280AD0302816D10AE050280ED060280C
:100BC00011D10EE044F008040DE044F010040AE0F6
:100BD00044F0200407E044F0400404E044F08004C2
:100BE00001E044F480742868816921F0700181611A
:100BF000296804204860002C05D0686A2043686298
:100C00002846FFF773FEBDE8F09F70B5040003D0DF
:100C100094F8200010B104E0012070BD204600F0DF
:100C200081F82068016841F00101016000F066FA76
:100C30000546052604E000F061FA401B0A2811D899
:100C400020684068C007F6D02068016821F00201E2
:100C5000016000F053FA05460BE000F04FFA401B2C
:100C60000A2806D9606A40F40030606284F8206087
:100C7000D2E7206840688007EFD4207E01282068F2
:100C800001683DD021F080010160607E012820686C
:100C9000016838D021F040010160A07E0128206861
:100CA000016833D021F020010160E07E0128206836
:100CB00001682ED041F010010160207F01282068DA
:100CC000016829D021F008010160607F01282068B7
:100CD000016824D021F004010160D4E90201084335
:100CE000D4E90412114308436168491E084321688E
:100CF000C86100206062012084F82000002070BDDF
:100D000041F08001C0E741F04001C5E741F020011A
:100D1000CAE721F01001CFE741F00801D4E741F024
:100D20000401D9E710B586B0044614216846FFF7E0
:100D300044FB17492068884227D1164800210268E1
:100D400042F000720260006800F0007005901148E7
:100D50001038026842F0080202600068022200F0C7
:100D6000080005900320CDE90210CDE9000209201A
:100D700004906946084800F0C9F800221146142082
:100D800000F02AFA142000F019FA06B010BD000095
:100D90000064004040380240000C024070470000F0
:100DA0002DE9F04100212DED028B8AB06B4602AA9D
:100DB000FFF79DFD002858D10298002855D10498CE
:100DC000002852D1059800284FD1069808284CD108
:100DD0009DF8001011F00F0047D0042845D8254A8F
:100DE00000EB400002EBC0049DF80320BDF80100B9
:100DF00013019DF804200D0943EA12179DF80530F0
:100E000002F00F0240BA43EA02264FF6FF71F2EEFB
:100E1000090ABAEE090A183CFFF75DFCF0EE400A39
:100E200040F6FF78B0EE608A4146F3EE040ABBEE6E
:100E3000040A3846FFF74FFCF0EE400A4146F0EE58
:100E4000608AF3EE0C0ABBEE0C0A3046FFF743FC57
:100E50009DF806109DF80700257184ED028AC4ED07
:100E6000038A84ED040A217560750AB0BDEC028B1B
:100E7000BDE8F0811C0100207047704770470000FA
:100E800070B5044690F82000012804D0606A40F450
:100E90000020606218E0022084F8200020680168C9
:100EA00021F00101016000F029F905460EE000BFC4
:100EB00000F024F9401B0A2808D9606A40F4003089
:100EC0006062052084F82000012070BD2068406821
:100ED000C007EDD1606270BD7047704770477047C2
:100EE000704770477047000070B5044600F006F97F
:100EF0000546601C02D004480078044400F0FEF867
:100F0000401BA042FAD370BD180000202DE9F84F15
:100F1000DFF8BCA10022012503264FF00F090AF1DA
:100F2000040BAAF1040E00BF0B6805FA02F423407B
:100F3000A34270D10F7907F00307012F01D0022FD0
:100F400016D187684FEA420806FA08FC27EA0C0720
:100F5000D1F80CC00CFA08FC4CEA070CC0F808C029
:100F60004768A7430C79C4F3001494403C434460A1
:100F70000C79E443A4070AD0C4684FEA420C06FA8D
:100F80000CF7BC438F6807FA0CF72743C7600C794E
:100F900004F00304022C12D1D40800EB840CDCF81A
:100FA00020405707FF0E09FA07F824EA0804D1F891
:100FB000108008FA07F848EA0408CCF82080046892
:100FC0004FEA420C06FA0CF7BC430F7907F003070F
:100FD00007FA0CF7274307604C6814F4403F70D0C1
:100FE0003C4C276847F480472760246822F00307B9
:100FF00004F480440094384C07EB040CDCF80848F7
:1010000097074FEA177809FA08F7BC43334FB842FD
:1010100002D1002724E054E0314FB84201D101272A
:101020001EE0304FB84201D1022719E02E4FB842DE
:1010300001D1032714E02D4FB84201D104270FE05E
:101040002B4FB84201D105270AE02A4FB84201D1FF
:10105000062705E0284FB84201D1072700E00827FE
:1010600007FA08F72743CCF80878DAF80040574623
:10107000D1F804C09C435FEACC2C00D51C433C60F3
:10108000DBF800405F46D1F804C09C435FEA8C2C3B
:1010900000D51C433C60DEF800407746D1F804C020
:1010A0009C435FEA8C3C00D51C433C60084F083FE2
:1010B0003C68D1F804C09C435FEACC3C00D51C439B
:1010C0003C60521C102AFFF42FAFBDE8F88F0000DF
:1010D000083C01404438024000300140000002401A
:1010E0000004024000080240000C024000100240D0
:1010F0000014024000180240001C024001488068B1
:1011000070470000180000200248816802781144EE
:1011100081607047180000200B4810B5016841F449
:1011200000710160016841F480610160016841F46F
:1011300080710160032000F06FF80F2000F006F8C6
:1011400000F024F8002010BD003C024070B50D4DA9
:1011500004464FF47A712878B1FBF0F00A49096827
:10116000B1FBF0F001F00CF848B9102C07D20022C6
:101170002146501E00F030F800206C6070BD012048
:1011800070BD000018000020240000200A4808B5A7
:10119000016841F480410160006800F480400090E3
:1011A0000548001F016841F080510160006800F0AF
:1011B0008050009008BD000044380240002809DB40
:1011C00000F01F02012191404009800000F1E02061
:1011D000C0F8001170470000F0B40E4B1B680C46BD
:1011E000C3F30223C3F10705042D00D90425191DFB
:1011F000072901D2002300E0DB1E012606FA05F1D3
:10120000491E214099409E40761E16403143F0BC55
:1012100002F031BF0CED00E0064900F0070208685B
:101220004FF6FF03184040EA0220034A10430860CB
:10123000704700000CED00E00000FA057047006800
:10124000416200207047F0B50368586A39B19C6A62
:101250004FF4827600EB144400204D1E0AE040EA71
:10126000024098620FE006EB8007DF59401C04EB58
:101270001744C0B2A842F6D344EA02404FF4807249
:1012800002EB810158500020F0BDD0F8E00401F0DD
:1012900028BE01EBC10200EB8202D0F8E004126A22
:1012A00001F079BD01EBC10200EB8202D0F8E0044D
:1012B000D2F8602201F0CBBDD0F8E00401F013BEFB
:1012C0000A0601F00F0101EBC10100EB810101D51C
:1012D000143101E001F51571006802F0F9BC70B538
:1012E00004460B0601F00F0000EBC00104EB810186
:1012F0004FF001024FF0000502D54A75143103E0AA
:1013000081F8555201F51571087094F8940401287C
:1013100008D084F89424206802F0F4F984F89454F6
:10132000002070BD022070BD70B5044601F00F00B2
:101330002279904201D9012070BD0B0601F00F0106
:1013400001EBC10104EB81014FF001024FF00005F8
:1013500002D54A75143103E081F8555201F5157133
:101360008D70087094F89404012808D084F89424AF
:10137000206802F039FB84F89454002070BD0220EC
:1013800070BD01F00F0101EBC10100EB8100D0F84D
:10139000680270472DE9F04104460F0601F00F0086
:1013A00000EBC00104EB81014FF001064FF0000596
:1013B00002D54E75143103E081F8555201F51571CF
:1013C000C2F30A0208708A600B714A7802B148833E
:1013D000022B00D14D7194F89404012809D084F8AF
:1013E0009464206802F0DCF8284684F89454BDE840
:1013F000F0810220FBE710B501F00F0404EBC401FB
:1014000000EB8101C1E998230023C1F8683281F81B
:10141000553281F85442837901F51571012B00D1C1
:10142000CA618279006802F037FB002010BD70B5F8
:1014300004460D4601F00F002179884201D90120B0
:1014400070BD29064FF000064FF0010206D500EBF3
:10145000C00104EB81014A75143107E005EBC501B9
:1014600004EB810181F8556201F515718A700870ED
:1014700094F89404012807D084F89424206802F09A
:10148000DFFA280702D007E0022070BDA17904F23C
:101490009C42206802F07CFA84F89464002070BDBD
:1014A00010B501F00F0404EBC40100EB8101C1E9A8
:1014B000082300238B6201234B7501F8144F8379B5
:1014C000012B00D1CA618279006802F0E5FA0020A0
:1014D00010BD00002DE9FC5F05680446284602F0B7
:1014E00093FC00287DD1206802F0DAFC002878D037
:1014F000D5F80808C0F30D20C4F8D404206802F021
:10150000CFFC800704D52068416901F002014161E8
:10151000206802F0C5FCC10604F29C40009034D55E
:101520002068816921F0100181612F6A07F00F00A6
:1015300000EBC00004EB8006C7F3434006F51576C8
:10154000022802D0062811D01AE047F6F0700742B0
:1015500016D0C7F30A1217462846F16802F0A4FC19
:10156000F0683844F0607069384408E00822284682
:10157000009902F099FC7069C7F30A110844706180
:101580002068816941F010018161206802F088FCC7
:1015900000034FF0080B4FF0000A4FF001097CD513
:1015A0000026206802F05BFC074674E0F80770D064
:1015B000F1B2206802F06CFC8046C00707D005EB52
:1015C0004611C1F8089B3146204600F07FFE5FEAD5
:1015D000087024D505EB4611C1F808BB2068016CE2
:1015E00000E023E200EB46100191D0F8082BFB4B02
:1015F000994205D9110403D54FF40041C0F8081BE6
:10160000204600F0F6FAF5490198884207D9A079FA
:10161000012804D120680121009A02F0B9F95FEA9B
:10162000C86004D505EB46111020C1F8080B5FEA2D
:1016300088701DD56869000605D5D5F8040840F402
:101640008061C5F8041806EBC60004EB800090F832
:10165000571200F51570012905D180F803A0F1B2E9
:10166000204600F0E9F905EB46110220C1F8080B0D
:101670005FEA886004D505EB46102021C0F8081BFE
:101680005FEA884005D505EB46104FF40051C0F8DD
:10169000081B7F08761C002F88D1206802F000FC10
:1016A00040036ED5206802F0D3FB0746002666E0B3
:1016B000F80762D0F1B2206802F0D8FB8046C0077C
:1016C00023D006F00F01D5F8342809FA01F18A4336
:1016D000C5F8342805EB4611C1F80899A07901280E
:1016E0000FD106EBC60004EB8000D0E907211144BE
:1016F000016236B9606A20B920680121009A02F0BF
:1017000047F9F1B22046FFF7C4FD5FEA087003D540
:1017100005EB4611C1F808B95FEAC86004D505EBCE
:1017200046111020C1F808095FEA486004D505EBAE
:1017300046104021C0F808195FEA887016D5314676
:10174000284602F036FB06EBC60004EB8000C17DA4
:101750001430012905D180F803A0F1B2204600F031
:1017600067F905EB46110220C1F808095FEA086035
:1017700003D53146204600F00FFE7F08761C002F6F
:1017800096D1206802F08CFB002811DAD5F8040805
:1017900020F00101C5F8041894F8CC0401282BD0DE
:1017A000204600F00BFA2068416901F000414161D8
:1017B000206802F075FB00050BD5D5F80808C007B6
:1017C00002D0204600F03EFA2068416901F4006131
:1017D0004161206802F064FBC00467D5D5F80408B5
:1017E00020F00100C5F804081021206802F0E1FA99
:1017F00000214FF67F3220E084F8CCA4002120465F
:10180000FFF71CFDCFE700BF05EB4110C0F808292A
:10181000D0F8003923F40013C0F80039C0F8082BC1
:10182000D0F8003B23F40013C0F8003BD0F8003B95
:1018300043F00063C0F8003B491C20798842E3D89C
:10184000D5F81C0840F00111C5F81C18E07B0028F1
:1018500028460DD0D0F8840840F00B01C5F8841854
:10186000D5F8440840F00B012846C5F844180DE0AF
:10187000D0F8140842F22B010843C5F81408D5F833
:10188000100840F00B012846C5F81018D0F80008E1
:1018900020F4FE61C5F80018A1792068009A02F0D2
:1018A00077F82068416901F480514161206802F0B5
:1018B000F7FA800415D5206801F0B2FE206802F026
:1018C00096FAE07100F070FA0146E279206802F0C1
:1018D00049FB204600F05CF92068416901F40051A1
:1018E0004161206802F0DCFA000707D5204600F0CD
:1018F00069F92068416901F008014161206802F03E
:10190000CFFA000616D5A86920F08001A96101264A
:101910000DE000BF06EBC60004EB800090F8570214
:10192000012803D1F1B22046FFF7CAFC761C2079CA
:10193000B042EFD8206802F0B3FAC0021FD50126EA
:101940004F4614E005EB4610D0F8000906EBC6013F
:1019500004EB81010A7E012A08D1002806DACF753E
:10196000F0B240F080012046FFF7AAFC761C2079F7
:10197000B042E7D82068416901F4801141612068D4
:1019800002F08EFA800234D501204A4629E000BFD9
:1019900005EB4011D1F8001B00EBC00304EB8303FF
:1019A00093F85862012E1BD1002919DA94F8D464F7
:1019B000C1F3004106F001068E4211D183F857228F
:1019C000A96941F08003AB616969090608D4D5F8BB
:1019D000040840F40070C5F8040805E00A30544FCC
:1019E000401C21798142D3D82068416901F400115B
:1019F0004161206802F054FA400007D52046FFF705
:101A000044FC2068416901F080414161206802F096
:101A100047FA40070AD520684568680702D520467E
:101A2000FFF74AFC2068416829434160BDE8FC9FFC
:101A3000D0F8E00401F0A9BAD0F8E00401F0B9BA96
:101A4000F8B5040005D094F895042668002510B177
:101A500006E00120F8BD84F89454204600F056F8C2
:101A6000032084F89504B6F1A04F00D1A571206839
:101A700001F088FF207C8DF8000094E80F0001F051
:101A8000DDFD0226B8BB0021206802F02CFA90BBD5
:101A9000002001270DE000BF00EBC00104EB810135
:101AA0004F750875C8850D76CD610D62401CC0B2BA
:101AB0004D6221798142EFD8002011E000EBC00196
:101AC00004EB810181F8555281F8540281F8585293
:101AD000C1F85C52C1F86052401CC0B2C1F86452F7
:101AE00021798142EAD8207C8DF8000094E80F002B
:101AF00001F08AFE10B184F89564AAE7657484F851
:101B00009574206801F072FE0020F8BD10B586B013
:101B1000044614216846FEF750FC2068B0F1A04F3F
:101B20002FD119480021026842F0010202600068CA
:101B300000F0010005904FF4C05000900220CDE964
:101B40000101032003900A20049069460F48FFF723
:101B5000DDF90D48001D016841F0800101600A486F
:101B60001430016841F4804101600068002200F4F3
:101B70008040059011464320FFF72EFB4320FFF7DE
:101B80001DFB06B010BD00003038024000000240CE
:101B900070B50446C079012570B1022801D0FEF766
:101BA000ACFD2946D4F8E00401F072FAD4F8E00460
:101BB000BDE8704001F026BA0025F2E7D0F8E00455
:101BC00001F04FBAD0F8E00401F055BA10B5044660
:101BD00090F8940401280AD0012084F894046174D8
:101BE000206802F0AEF9002084F8940410BD0220B1
:101BF00010BDD0F8E02400F29C41104601F054BA28
:101C000010B50446006894F89414012909D0012104
:101C100084F89414C168490609D5617B012902D072
:101C200005E0022010BD816B41F4803181632068A2
:101C300002F09DF8206801F0CBFD002084F89404A8
:101C400010BD000010B50446D0F8E00401F06EFAB3
:101C50002068D0F8001E41F00101C0F8001EE07AB3
:101C6000002804D00248016841F00601016010BD5F
:101C700010ED00E02DE9F0470E46050065D0DFF8D5
:101C80001481D8F80000F7B200F00700B04207D284
:101C900088F80070D8F8000000F00700B04254D176
:101CA00028683D4C810712D5400703D5206840F4D1
:101CB000E05020602878000703D5206840F4604099
:101CC00020602068A96820F0F00008432060287890
:101CD000C0072DD0304968680839012812D0022881
:101CE00013D0032811D00968890700292DDA21684B
:101CF00021F0030101432160FFF700FA814641F220
:101D0000883A0EE009688903EFE709688901ECE782
:101D1000FFF7F4F9A0EB0901514502D90320BDE812
:101D2000F0872068696800F00C00B0EB810FEFD1FC
:101D3000D8F80010404601F00701B14207D90770FA
:101D4000006800F00700B04201D00120E7E72878E2
:101D5000400705D52068E96820F4E050084320607A
:101D60002878000706D52068296920F4604040EAF9
:101D7000C100206000F01EF82168084AC1F3031179
:101D8000515CC8400649086006480068FFF7DEF964
:101D90000020C4E7003C0240083802402A42000804
:101DA000240000201C00002001480068704700004B
:101DB00024000020154810B5006810F00C021448EB
:101DC00013D04110042A0FD0082A0ED10F4C241F23
:101DD0002268236802F03F025B0207D52068C0F347
:101DE0008810A0FB010106E0084610BD2168C1F380
:101DF0008811A1FB00010023FEF736FA2168C1F328
:101E00000141491C4900B0FBF1F010BD0838024007
:101E10000024F4002DE9F84F04006ED02078DFF89C
:101E20004C93C007A9F104054AD009F104000168E8
:101E3000C1F38101012908D00068C0F381000228A4
:101E40000AD1D9F80000400206D52868800337D5AA
:101E500060680028E1D033E06068B0F5803F10D0C2
:101E6000B0F5A02F286810D020F4803028602868B2
:101E700020F4802028606068A8B1FFF73FF906468B
:101E80000DE0286840F48030F4E740F480202860BA
:101E9000F7E700BFFFF732F9801B642873D8286882
:101EA0008003F7D50CE0FFF729F9064605E000BFEF
:101EB000FFF724F9801B6428F0D828688003F7D442
:101EC0002078DFF8AC8280074FF0000A3ED5A748A3
:101ED000001D016811F00C0F08D00068C0F38100EC
:101EE00002280BD1D9F80000400207D428688007E7
:101EF00016D5E068012800D112E033E1E068B8B1FE
:101F00000120C8F80000FFF7F9F8064605E000BF19
:101F1000FFF7F4F8801B0228C0D828688007F7D59F
:101F20002868216920F0F80040EAC10028600DE02F
:101F3000C8F800A0FFF7E2F8064604E0FFF7DEF875
:101F4000801B02281FD828688007F7D42078000754
:101F500022D5864F87486169703771B101210160D0
:101F6000FFF7CCF8064604E0FFF7C8F8801B02280C
:101F700009D838688007F7D50EE0C0F800A0FFF751
:101F8000BDF8064605E082E0FFF7B8F8801B02289E
:101F90007DD838688007F7D42078400768D5DFF807
:101FA000CCB100270BF13C0BDBF80000C0000BD4D8
:101FB000DBF8001041F08051CBF80010DBF8000096
:101FC000012700F0805000906B4E3068C00510D49F
:101FD000306840F480703060FFF790F8009005E0C2
:101FE000FFF78CF80099401A022850D83068C005D5
:101FF000F6D55E4EA0686C3601280FD005283068F3
:1020000010D020F001003060306820F00400306013
:10201000A068B8B1FFF772F800900FE0306840F0A8
:102020000100F4E740F004003060F7E7FFF766F8DE
:102030000099411A41F28830814266D830688007A1
:10204000F4D50EE0FFF75AF8009007E0FFF756F8D6
:102050000099411A41F28830814256D83068800791
:10206000F4D42FB1DBF8001021F08051CBF8001030
:10207000A069C8B33D49091D0968C1F3810102295E
:102080004AD00228504607D0C8F8600000E03CE083
:10209000FFF734F804463BE04746C8F86000FFF716
:1020A0002DF8064605E000BFFFF728F8801B022840
:1020B0002BD828688001F7D4D4E907010843A16A26
:1020C0002E4A490802EB0141626A41EA8211084343
:1020D00094F82C1040EA0161C9F80010012038661C
:1020E000FFF70CF8044606E03EE000BFFFF706F8F5
:1020F000001B022809D828688001F7D534E000BF0A
:10210000FEF7FCFF001B022802D90320BDE8F88F70
:1021100028688001F4D427E00128F7D0D9F800001E
:10212000E26900F4800191421CD1226A00F03F0173
:10213000914217D147F6C071626A0140B1EB821F2C
:1021400010D1A26A4FF0FF3300F4403103EB52028A
:10215000B1EB024F06D194F82C1000F07060B0EB98
:10216000016F01D00120D1E70020CFE70438024001
:1021700000004742800E4742007000400000FFFF11
:1021800010B5401EB0F1807F01D3012010BD4FF08B
:10219000E02460610F21601701F06DFF0020A06155
:1021A00007202061002010BDFEE70000F0B50023ED
:1021B0000A24302537261F4611E000BFB4EB107FFC
:1021C00002D905EB107C01E006EB107C01F813C08E
:1021D00001EB430C00015B1C8CF80170DBB29342F5
:1021E000ECD3F0BD104810B50E49016003214160E9
:1021F00000214FF420228160C0E903124FF48012C5
:1022000042610176417681760122C276017741777B
:10221000FEF7FBFC002803D0BDE81040FEF76DBAC6
:1022200010BD000000640040EC0200200D4808B51D
:10223000016841F080010160016801F080010091B6
:10224000016841F001010160016801F001010091A4
:10225000016841F008010160006800F0080000908A
:1022600008BD00003038024010B500220F49104868
:1022700000F06CFD08B1FEF740FA0E490C4800F082
:1022800081FF08B1FEF739FA0B49094800F0FEFA60
:1022900008B1FEF732FA064800F0F8FF002803D034
:1022A000BDE81040FEF729BA10BD0000280000204C
:1022B00014030020E400002078000020FEE7FEE781
:1022C0000148FFF707B90000101A00202DE9F0417E
:1022D00003680D4604461E6C03EB4511D1F8080B4C
:1022E00094F806E04FF400474FF0200C04F29C42B3
:1022F000BEF1010F09D0DFF898E0764539D102042C
:1023000032D500BFC1F8087B3FE0224B5FEA007E78
:1023100004D59E4239D90004F4D436E05FEA806ED9
:1023200002D5C1F808CB30E010F0280F2DD19E4225
:1023300001D90004E6D405EBC50004EB8000D1F818
:10234000101BD0F87432C1F31201591AC0F8681288
:1023500000F51570ADB903691BB1C2681144C160C5
:102360000FE0012120680AE080060AD5C1F808CBF9
:1023700007E035B9D4F8640218B90021184601F015
:1023800007FBE9B22046FEF78DFF0020BDE8F08193
:102390000A31544F0A30544F2DE9F84F0E4601EBE5
:1023A000C60100EB810481460568D4E909101434A4
:1023B000884202D90120BDE8F88F081AA16881423D
:1023C00000D20846C01C870805EB46181BE000BF7A
:1023D000A0EB010AA068504500D282460AF1030032
:1023E000870899F8060000901FFA8AF3F2B228468F
:1023F000E16801F02BFEE16801EB0A00E060616931
:1024000001EB0A006061D8F8180980B2B84205D320
:10241000D4E90401814201D20028D9D1D4E90401D0
:10242000884208D806F00F0101208840D5F83418FA
:102430008143C5F834180020BDE770477047017824
:10244000407841EA00207047FEF75EBE30B593B099
:1024500030216846FDF7B1FF14210CA8FDF7ADFF50
:102460001D480025016841F080510160006800F0BE
:10247000805011901948016841F480410160006862
:10248000022400F48040119001200090000401908B
:102490008001CDE9064004200890A820CDE9090478
:1024A00007200B906846FFF7B5FC08B172B6FEE74F
:1024B0000CA90F2081E831004FF4A0500F904FF489
:1024C0008050109005210CA8FFF7D4FB002801D004
:1024D00072B6FEE713B030BD4038024000700040D5
:1024E0000248016841F470010160704788ED00E026
:1024F0002DE9F0410C46D0F8D412D0F8C82200EBF8
:102500008101D1F8C01229B304F00F0606EB86034F
:1025100000EB830500276B694BB106EBC60602EBA7
:102520008602D269B3FBF2F602FB1632A2B1C1F801
:102530001472D0F8D42200EB8200D0F8C4020369F0
:102540002BB1D1F80802224601F50471984700200A
:10255000BDE8F0810320FBE700231A4621466F61A6
:1025600000F0F1FDF3E770B50546D0F8D40205EBB5
:102570008000D0F8C04294B1284600F0C3FCC4F8F3
:102580000C02D5F8D412D4F8040205EB8101D1F87D
:10259000C412CA6804F503719047002070BD03207F
:1025A00070BD000070B5234D0446297800F0EAFBA9
:1025B0002878002600F00F0000EB800004EB80007C
:1025C00080F823606978204600F0DCFB687800F032
:1025D0000F0000EB800004EB800080F86361A978B5
:1025E000204600F0CFFBA87800F00F0000EB800041
:1025F00004EB800080F82360C661D4F8D40204EBB9
:102600008000D0F8C01299B1D0F8C4024068804769
:10261000D4F8D40204EB8000D0F8C00200F0BAFF76
:10262000D4F8D40204EB8000C0F8C062C4F8BC62E5
:10263000002070BD9000002010B5D0F8D41200EB3F
:102640008100D0F8C04284B1D0F8C41259B194F8D6
:102650000002FF2807D08B6894F801222146984792
:10266000FF2084F80002002010BD032010BD0000F0
:102670000A210180004870479400002070B506468A
:1026800082210C4800F001FB05460121094800F0B9
:10269000FCFA04468121074800F0F7FA0DB1102139
:1026A000A971402104B1A18000B181804320308014
:1026B000004870BDA000002070B5064682210D487C
:1026C00000F0E3FA054601210A4800F0DEFA04466C
:1026D0008121084800F0D9FA0DB11021A9714FF4F9
:1026E000007104B1A18000B1818043203080014895
:1026F00070BD0000A000002070B5064682210C4885
:1027000000F0C3FA05460121094800F0BEFA04466C
:102710008121074800F0B9FA0DB11021A9714021BB
:1027200004B1A18000B1818043203080004870BD99
:10273000A00000202DE9F04704464FF40775284615
:1027400000F02AFF06004FF0000865D02946FDF78B
:1027500034FED4F8D4023E4D04EB80004FF0100953
:10276000C0F8C062C4F8BC62207C4FF4007A012734
:10277000E8B3402302222978204600F02EFC287876
:10278000402300F00F0000EB800004EB800080F895
:10279000237002226978204600F01FFC6878082325
:1027A00000F00F0000EB800004EB8000032280F8B3
:1027B0006371A978204601F00F0101EB810104EB60
:1027C0008101C1F81C90A97800F007FCA87800F0FE
:1027D0000F0000EB800004EB800080F82370C6F847
:1027E0000482D4F8D402474604EB800000E01BE0EA
:1027F000D0F8C40206F5017600688047376177613A
:1028000032687AB1207C00B340236978204600F01A
:10281000F0FB0020BDE8F087D4F8D41204EB81016E
:10282000C1F8C0820220F5E75346022229782046EB
:1028300000F0D3FB2878534600F00F0000EB800037
:1028400004EB800080F82370A3E75346DDE7000027
:102850009000002010B5D0F8D41200EB8101D1F81F
:10286000C01259B1027C084C002AD1F8042207D0CA
:102870004023617800F0BDFB002010BD032010BD97
:102880004FF40073F5E700009000002039B1D0F854
:10289000D42200EB8200C0F8C4120020704703204D
:1028A0007047D0F8D42200EB8200D0F8C00218B1F3
:1028B000C0F804120020704703207047D0F8D432CB
:1028C00000EB8300D0F8C00228B1C0F81022C0F895
:1028D000081200207047032070472DE9FC4106468E
:1028E000D0F8D4020C4606EB80000021D0F8C0726C
:1028F0008DF80010ADF804100D4637B1217811F0B5
:1029000060022FD0202A4BD102E00320BDE8FC81D9
:10291000E288F2B109060DD5D0F8C40263783946D1
:10292000D0F808C01846E047E288072A00D90722F5
:1029300039462DE0607887F80002E088402800D30F
:102940004020C2B287F801223946304600F081F8B3
:102950002BE0D0F8C402637800228668214618462E
:10296000B04722E0607830B101281ED00A2809D093
:102970000B2815D110E096F89C02032810D10222F2
:1029800001A905E096F89C02032809D101226946B5
:10299000304600F07AF808E096F89C02032804D04C
:1029A0002146304600F04AF803252846AEE70000ED
:1029B00010B5D0F8D41200EB8101D1F8C02201216A
:1029C0001AB1D2F8143213B116E0032010BD012160
:1029D000C2F814120949D2F81032097801F00F0434
:1029E00004EB840400EB84046361D2F81032D2F863
:1029F000082200F0A8FB0021084610BD900000202E
:102A000010B5D0F8B82200245268904700B10324D2
:102A1000204610BD0020704700207047134610B5B7
:102A20000A46002100F0E5FA002010BD134610B55B
:102A30000A46002100F087FB002010BD10B50446B7
:102A4000802100F061FB2046BDE81040002100F02D
:102A50005BBB10B50323C0F89432C0F85421C0F812
:102A600058211346C0F864110A46002100F0C1FA4B
:102A7000002010BD10B50521C0F8941200231A469D
:102A8000194600F0B6FA002010BD10B50223C0F8B8
:102A9000943242618261134641620A46002100F08D
:102AA00052FB002010BD10B50421C0F89412002381
:102AB0001A46194600F047FB002010BD10B50A4623
:102AC000024903A000F00FF9004810BDF0050020F6
:102AD00043444320436F6E666967000012200880FC
:102AE000004870474800002010B50A46024903A07C
:102AF00000F0F9F8004810BDF005002043444320E1
:102B0000496E746572666163650000000420088088
:102B1000004870474400002010B50A46024903A04F
:102B200000F0E1F8004810BDF005002053544D6955
:102B300063726F656C656374726F6E6963730000B6
:102B400010B50A46024903A000F0CDF8004810BDB8
:102B5000F005002053544D3332205669727475616C
:102B60006C20436F6D506F727400000010B51A2016
:102B700008800A480168001D0468001D00680818E4
:102B800009D008220649FFF711FB0549042210313C
:102B90002046FFF70BFB0248801E10BD107AFF1F76
:102BA0005E000020F8B504460020ADF8000048881B
:102BB0000D46010A08295FD2DFE801F05E0409171B
:102BC0005E5E3C45D4F8B412207C0A6819E0207C93
:102BD00002260028D4F8B80205D0C16A68468847A2
:102BE0000146467039E0816AF8E7C0B2062843D250
:102BF000DFE800F0030A1014181CD4F8B40242688D
:102C000005E0694690471CE0D4F8B402826892B3AC
:102C1000207CF6E7D4F8B402C268F8E7D4F8B4022E
:102C20000269F4E7D4F8B4024269F0E7D4F8B402D8
:102C30008269ECE7207CF0B9D4F8B802416B6846B1
:102C40008847014609E0207CA8B9D4F8B802016B96
:102C500068468847014607204870EA888AB1BDF86F
:102C6000000040B1824200D90246ADF80020204663
:102C7000FFF70BFFF8BDFFE729462046FFF7DEFE12
:102C8000F8E72046FFF70FFFF4E778B50E464288D5
:102C90000178002504468A4212D9ADF800100AE0F6
:102CA000694600F019F84178052904D18178054674
:102CB000B14205D000256188BDF800209142EFD8CF
:102CC000284678BD0146002002E0401CC0B2491CE5
:102CD0000A78002AF9D170470A8803781A440A80D2
:102CE00001780844704770B516460D46002820D07C
:102CF0000446FFF7E7FF022101EB40014FF40070AB
:102D0000814204D82046FFF7DDFF4000801C308060
:102D100030782870032068700220002206E02954D1
:102D2000401CC0B22A54401CC0B2641C2178002947
:102D3000F5D170BD01004FF0000004D0012901D091
:102D4000022901D0032070470120704778B1002389
:102D5000C0F8B832C0F8C432C0F8D03209B1C0F8F7
:102D6000B412012180F89C12027000F0CFB8032049
:102D7000704710B5D0F8C802FEF7D6FABDE810408B
:102D8000FFF7D8BF10B5D0F8C802FEF7A8FABDE823
:102D90001040FFF7CFBF70B50446002521B194F86D
:102DA0009C02032846D050E0D4F8941204F1140099
:102DB000022939D1818942688A420AD9511A41606F
:102DC000828901691144016142682046FFF72EFEA5
:102DD0000FE0914214D10068884211D3D4F89812C0
:102DE00088420DD2002211462046FFF71FFEC4F88C
:102DF000985200231A461946204600F0FAF813E0CC
:102E000094F89C02032808D1D4F8B802C16821B113
:102E1000C4F8D452C168204688478021204600F07B
:102E200073F92046FFF726FE94F8A00268B184F8F3
:102E3000A0520AE0D4F8B802426932B1C4F8D452C0
:102E4000426920469047002800D1002070BD10B58F
:102E50000446002221B194F89C02032834D03EE0BD
:102E6000D4F8941204F5AA70032938D181894368F3
:102E70008B420ED9591A416082890169114401615E
:102E800042688089824200D802462046FFF7C6FD8C
:102E900025E094F8AA0210F01F0003D0012802D008
:102EA000022800D0002294F89C02032808D1D4F80C
:102EB000B802016921B1C4F8D422016920468847CB
:102EC0002046FFF7F0FD0AE0D4F8B802836933B179
:102ED000C4F8D422826920469047002800D10020FF
:102EE00010BD0020704710B50024012180F89C120D
:102EF000D0F8B82222B152680179904700B103247A
:102F0000204610BDD0F8C802FEF73BBA10B50178D4
:102F100039BB15490222C1F8E004C0F8C8124FF0CD
:102F2000A040086004200871CA71002088714A72AC
:102F30008872C87208738873C8730846FEF780FDEC
:102F400008B1FDF7DAFB80210748FEF778F9402247
:102F500000210548FEF777F9802201210248FEF79B
:102F600072F9002010BD0000101A00200A0601F0BE
:102F70007F01D0F8C80201EBC10100EB810001D54F
:102F8000807D704790F85602704710B5D0F8D42273
:102F900000EB8202D2F8B82222B190F89C32032BC7
:102FA00002D004E0032010BD126A02B19047002055
:102FB00010BD10B5D0F8D42200EB8202D2F8B822AE
:102FC00022B190F89C32032B02D004E0032010BD04
:102FD000526A02B19047002010BD10B51C4613463E
:102FE000D0F8C8022246FEF7D5F9BDE81040FFF739
:102FF000A1BE10B5D0F8C802FEF7FDF9BDE810403B
:10300000FFF798BE2DE9F04100260125044680F81F
:103010009C52C4F894626660C4F8A46280F8A0620E
:10302000D0F8B80230B1426822B100212046904762
:1030300000B103260022402311462046FFF7CDFFB2
:10304000402784F86351A4F860713B460022802138
:103050002046FFF7C2FF84F8235027843046BDE89E
:10306000F08190F89C12042903D190F89D1280F809
:103070009C120020704710B590F89C12032905D1CE
:10308000D0F8B81211B1C96901B18847002010BD4C
:1030900001740020704710B5D0F8C802FEF796FD05
:1030A000BDE81040FFF746BE70B5044600F2AA2006
:1030B000054600F051F80120C4F89402B4F8B002BB
:1030C000C4F8980294F8AA0210F01F010AD001294E
:1030D0000ED0022912D000F080012046BDE87040D9
:1030E00000F012B829462046BDE8704000F0D0B884
:1030F00029462046BDE8704000F013BA2946204614
:10310000BDE8704000F05AB910B5D0F8C802FEF71B
:103110008EF9BDE81040FFF70DBE10B5D0F8C8021B
:10312000FEF76EFDBDE81040FFF704BE90F89C125C
:10313000042903D090F89C1280F89D12042180F895
:103140009C120020704710B5D0F8C802FEF7A8F90D
:10315000BDE81040FFF7EEBD70B5054611F8010B54
:103160002870087868704C1C2046FFF768F9688062
:10317000A41C2046FFF763F9A880A01CFFF75FF9A5
:10318000E88070BD38B504460020ADF80000A1B15C
:10319000C4F8B812D4F8D40204EB8000D0F8B80216
:1031A000C16A19B168468847C4F8D002D4F8D80279
:1031B000401CC4F8D802002038BD032038BD0246A8
:1031C0000020D2F8B832002B02D01B6810461847F6
:1031D000704700002DE9F04188462B4E8978002584
:1031E00004463170012906D941462046FFF726FCE6
:1031F0000320BDE8F08194F89C02022702280CD03D
:1032000003281DD041462046FFF718FC31782046A0
:10321000FFF7F6FB03252846EBE789B320466160FC
:10322000FFF7CDFF050004D041462046FFF706FC1E
:103230001DE02046FFF737FC032084F89C02EAE7F4
:10324000C1B1606888421BD0C1B22046FFF7D8FBED
:10325000317820466160FFF7B2FF050010D041468B
:103260002046FFF7EBFB21792046FFF7C9FB84F8E6
:103270009C72D0E784F89C7220466160FFF7C0FB27
:103280002046FFF710FCC6E78C000020FFF745BF83
:103290002DE9F0410A78002512F060020CD0202AB6
:1032A00001D0402A7DD1D0F8D42200EB8202D2F89E
:1032B000B8229268904731E04B78002201260A2B11
:1032C0006FD2DFE803F041666E586E08056E2D2957
:1032D000FFF768FC67E004468888D8B9C888C8B991
:1032E0004888802816D200F07F0794F89C020328B3
:1032F00010D084F89E7239462046FFF7CCFE204657
:10330000FFF7D1FB1FB1022084F89C024BE084F848
:103310009C6248E0204644E0FFF75CFF054642E03F
:10332000CB88012B3DD190F89C32012B04D0022B8D
:1033300002D0032B35D104E08260012200F10801A4
:1033400016E00122011D13E090F89C22012A03D00F
:10335000022A01D0032A24D1CA88022A21D1C660B8
:10336000D0F8A41209B10321C160022200F10C01BE
:10337000FFF78BFB17E04A88012A02D0022A03D00C
:103380000FE0C0F8A46216E08988090A80F8A0124C
:1033900011E090F89C32012B08D0022B06D0032BB1
:1033A00004D0FFF74BFB2846BDE8F081498801298E
:1033B000F9D1C0F8A422FFF776FBF4E72DE9F0413C
:1033C000054608780C790E464FF0000810F06000B2
:1033D0000BD0202801D040286BD121462846FFF78A
:1033E00019FBFF2800D0D8B398E07078C8B3012843
:1033F00024D003285DD195F89C02022802D003282E
:1034000057D10CE0002C54D0802C52D021462846B5
:10341000FFF77AFE80212846FFF776FE7EE070886F
:1034200040B93CB1802C05D0C88818B9214628463F
:10343000FFF76AFE2846FFF736FB6FE095F89C021F
:103440000228DFD0032866D1708888BB600603D0CD
:1034500021462846FFF78DFC2846FFF724FBBCE7F2
:1034600000E00AE0C5F8D402D5F8B8028268FAB1E3
:10347000314628469047804650E095F89C02002748
:10348000022802D0032846D114E00CB1802C42D18E
:10349000200604F07F0000EB800005EB800101D5E1
:1034A000143101E001F5AA71022201F80E7F2EE02D
:1034B00034E030E0200604F00F0000EB800005EB64
:1034C00080000AD590F8230028B304F07F0000EBB9
:1034D000800005EB800614360AE090F86301D0B155
:1034E00004F07F0000EB800005EB800606F5AA766D
:1034F0004CB1802C07D021462846FFF737FD10B18C
:103500000120B07300E0B773022206F10E012846D5
:10351000FFF7BBFA02E02846FFF790FA4046BDE805
:10352000F08170B50546087800240E4610F0600062
:1035300003D0202801D0402827D195F89C020128EB
:1035400003D0022801D003281FD1B088C1B20129BD
:103550001AD8C1B22846FFF75FFAFF280CD058B935
:10356000D5F8B8128A683AB1C5F8D4028A683146EB
:1035700028469047044600E00324F088204307D102
:103580002846FFF790FA03E031462846FFF756FA3F
:10359000204670BD7047000000487047F0170020BB
:1035A00070B50A78012302F00F054E78AB401B4C32
:1035B000D0F81C58012E17D045EA0343C0F81C3838
:1035C00000EB4210D0F8002B12040BD4D0F8002BE3
:1035D0000B890979C3F30A031A4344EA81410A4378
:1035E000C0F8002B002070BD9BB21D43C0F81C58D2
:1035F00000EB4210D0F800391B04F3D4D0F80039A6
:103600000D890979C5F30A0589042B4341EA8251E2
:103610000B432343C0F80039E4E7000000800010AA
:10362000D0F800196FF30A01C0F80019D0F8041897
:1036300041F48071C0F804180020704770B50D4641
:103640000446C2F3072104981E4601291BD0E068F6
:1036500040F04000E060204600F032F8C6F3072159
:103660000029A16B26D021F48031A163C5F3074165
:10367000012907D1A16841F00601A160A16841F0CC
:103680002001A16070BDA16B21F48031A163E168CC
:103690000A4A1140E160E16821F44011E160C0B2E2
:1036A000012803D1E06840F48010E060204600F07B
:1036B00007F8DBE741F48031D7E70000BFFFBDFF2B
:1036C00008B5002100914FF07061009A521C0092E1
:1036D0008A4210D80269002AF7DA0A220092521EA2
:1036E0000092FCD1026942F001020261009A521C70
:1036F00000928A4201D9032008BD0269D207F5D1A0
:10370000002008BD30B54C780A78012300EB421246
:10371000012C2CD0D2F8004B002C0BDAD2F8004B45
:1037200044F00064C2F8004BD2F8004B44F08044EF
:10373000C2F8004BD0F83C580C7804F00F0403FAA0
:1037400004F425EA0444C0F83C48D0F81C48097841
:1037500001F00F018B4024EA0341C0F81C18D2F895
:10376000000B19490840C2F8000B002030BDD2F808
:103770000049002C0BDAD2F8004944F00064C2F88A
:103780000049D2F8004944F08044C2F80049D0F81A
:103790003C480D7805F00F0503FA05F5ADB2AC43D2
:1037A000C0F83C48D0F81C48097801F00F018B4064
:1037B00099B28C43C0F81C48D2F80009034908406C
:1037C000C2F80009D1E700000078F3EF007833EC8D
:1037D000D0F8001E21F00301C0F8001ED0F8041834
:1037E00021F00201C0F8041800207047D0F8001E34
:1037F00021F00301C0F8001ED0F8041841F00201C6
:10380000C0F80418002070472DE9F04F00250E463F
:10381000044617462846294604EB8002C2F80411E4
:10382000401C0F28F8D3C3F307405FEA0009204685
:1038300016D0806B20F40012A263A06B40F400222B
:10384000A263084688462146C4F8000EC7F3072045
:10385000012817D00846D1F8001841F0030118E0FC
:10386000D0F8040840F00202C4F80428A06B40F429
:103870000012A263A06B20F40022A263A06B20F4CC
:103880008022DDE7300E0846D1F8001801D041F063
:103890000101C0F80018102100F08BFA00B10125D9
:1038A000204600F06AFA00B101254046C4F81088AD
:1038B000C4F81488C4F81C8800214FF0006B4FF046
:1038C000904E4FF67F3AF2B215E000BF04EB411381
:1038D000D3F800C9BCF1000F06DA11B1C3F800E952
:1038E00004E0C4F800B901E0C3F80009C3F8100906
:1038F000C3F808A9491C8A42E8D8002115E000BF96
:1039000004EB4113D3F800CBBCF1000F06DA11B180
:10391000C3F800EB04E0C4F800BB01E0C3F8000BFF
:10392000C3F8100BC3F808AB491C8A42E8D8D4F896
:10393000101821F48072C4F81028A0616FF0804044
:103940006061C6F3074018B9A06940F01000A0619B
:10395000A0690A490843A061C7F3074018B1A069EC
:1039600040F00800A061B9F1010F03D1A06904493A
:103970000843A0612846BDE8F08F000000383C8075
:1039800004000040816821F001018160002070473F
:1039900010B5036C134CA34203D9D0F8003B002BA5
:1039A0001EDB0023C0F8103BD0F8103B43F400238B
:1039B000C0F8103BD0F8103B43F01803C0F8103BA0
:1039C000D0F8103B43F0C043C0F8103B012907D1A9
:1039D000C0F8142BD0F8001B41F08021C0F8001B68
:1039E000002010BD0A30544F4A780B78012A00EBB2
:1039F00043100BD0D0F8002B22F40012C0F8002B9B
:103A00000979032914D0022912D017E0D0F800292F
:103A100022F40012C0F800290979032901D00229F3
:103A20000CD1D0F8001941F08051C0F8001905E020
:103A3000D0F8001B41F08051C0F8001B00207047F7
:103A40000A784B78D1B200EB4110012B12D0D0F89C
:103A5000001B002906DB2AB1D0F8001B21F08041B1
:103A6000C0F8001BD0F8001B41F40011C0F8001B87
:103A700000207047D0F80019002906DB2AB1D0F8E1
:103A8000001921F08041C0F80019D0F8001941F464
:103A90000011C0F80019EBE7F8B50C784F788B4DA2
:103AA000E3B26FF0604600EB4313012F29D0D3F847
:103AB000107B6FF31207C3F8107BD3F8107B2F40F5
:103AC000C3F8107B002C7DD00D69002D7BD08C6855
:103AD00025446D1EB5FBF4F5ADB26C430C62D3F812
:103AE000104B06EAC5452C43C3F8104BD3F8104BD6
:103AF0000D6AC5F312052C43C3F8104B012A70D090
:103B0000CBE00F69EFB1D3F810796FF31207C3F868
:103B10001079D3F810792F40C3F810790CB30F69DE
:103B20008D682F447F1EB7FBF5F5D3F81079ADB241
:103B300006EAC5463743C3F810790E79012E1CD02A
:103B40002AE0D3F810692E40C3F81069D3F8105951
:103B500045F40025C3F81059D3F810596FF3120536
:103B600020E00E698D68AE4200D90D61D0F8105981
:103B700045F40026C0F810690EE0D3F8106926F06D
:103B8000C046C3F81069D3F810694FF0C04707EA80
:103B900045752E43C3F81069D3F810590E69C6F362
:103BA00012063543C3F81059012A1BD000EB441309
:103BB000D3F8004944F00444C3F800490C79012CBF
:103BC00031D001E044E057E00A695AB3D0F8342814
:103BD000097801F00F03012199400A43C0F8342805
:103BE00071E056E0CA691AB100EB4413C3F8142916
:103BF000097901290ED1D0F80818C90500EB441144
:103C0000D1F8002902D442F0005201E042F0805283
:103C1000C1F8002900EB4410D0F8001941F004412C
:103C2000C0F800194FE0D0F80848E405D3F800497F
:103C300002D444F0005401E044F08054C3F8004939
:103C400000920A8A93B20A78C96800F0FFF93AE054
:103C50000C690CB18C680C618C680C62D0F8105B3C
:103C6000C4F312042543C0F8105BD0F8104B44F4A1
:103C70000024C0F8104B41E7D3F8104B8D68C5F312
:103C800012052C43C3F8104BD3F8104B44F4002416
:103C900032E7CA680AB1C3F8142B097901290CD19B
:103CA000D0F80808C005D3F8000B02D440F000504B
:103CB00001E040F08050C3F8000BD3F8000B40F057
:103CC0000440C3F8000B0020F8BD0000FFFF07E030
:103CD00038B50022009213464D780A7842F21074EB
:103CE00000EB4212012D19D0D2F8005B002D3CDA16
:103CF000D2F8005B45F00065C2F8005B0A7800EB83
:103D00004212D2F8005B45F08045C2F8005B009A91
:103D1000521C0092A24221D9012326E0D2F8005978
:103D2000002D22DAD2F8005945F00065C2F800599A
:103D30000A7800EB4212D2F8005945F08045C2F8EB
:103D40000059009A521C0092A242E5D80A7800EB72
:103D50004212D2F80029002AF3DB06E00A7800EBD1
:103D60004212D2F8002B002AD1DB184638BD8168F8
:103D700041F0010181600020704708B500214FF03B
:103D800070620091009B5B1C009393420AD8036908
:103D9000002BF7DA0091102101610099491C009174
:103DA000914201D9032008BD0169C906F5D400205C
:103DB00008BD18B500224FF070630092009C641C8F
:103DC00000949C420CD80469002CF7DA009220225F
:103DD00042EA811101610099491C0091994201D97F
:103DE000032018BD01698906F5D4002018BDD0F85C
:103DF000080810F0060004D0022803D0062801D0DD
:103E00000F20704702207047406900F001007047A2
:103E100070B568B1094D297851B1EFF3108472B6CD
:103E200064220749FCF797FA0020287014B102E0D9
:103E3000002070BD62B6012070BD000004000020AB
:103E4000DC01002001490020487070470400002078
:103E5000D0F81818D0F81C08084080B27047D0F885
:103E60001818D0F81C080840000C704710B5D0F89E
:103E70001038D0F8342801F00F0400EB4110E24074
:103E800002F00102D0F8080943EAC212104010BD46
:103E900000EB4111D1F8081BD0F814080840704716
:103EA000416980690840704730B503460846940868
:103EB00002F00301002203F5805303E01D6840F87F
:103EC000045B521CA242F9D300290BD01C680022CB
:103ED000D50024FA05F3491E521C090400F8013BE1
:103EE000090CF5D130BD70B50446C068002520F03E
:103EF000C040E060012901D079B120E0E06840F0E5
:103F00000050E0600A20FCF7EFFF60690A3510F00E
:103F1000010F10D1C82DF5D30DE0E06840F08040CE
:103F2000E0600A20FCF7E0FF60690A3510F0010F3D
:103F300001D0C82DF5D3C82D01D0002070BD0120BF
:103F400070BDD0F8002822F4FE62C0F80028D0F836
:103F500000284FF4FE6303EA01110A43C0F8002869
:103F600000207047022A3ED1264A274B0A449A4233
:103F700001D20F2138E0254A254B0A449A4201D24A
:103F80000E2131E0234A244B0A449A4201D20D21EA
:103F90002AE0224A224B0A449A4201D20C2123E011
:103FA000204A214B0A449A4201D20B211CE01F4AAD
:103FB0001F4B0A449A4201D20A2115E01D4A1E4BAA
:103FC0000A449A420FD31D4A1D4B0A449A4201D219
:103FD000082109E01B4A11441B4A914201D20721E2
:103FE00002E0062100E00921C26822F47052C2609A
:103FF000C2684FF4705303EA81210A43C260002073
:1040000070470000405327FF00350C00401E1BFF87
:1040100040420F0000DC0BFF804F1200808CF9FE45
:1040200020D6130060B6E5FE60E3160000D3CEFE96
:1040300040771B00C05BB3FEC091210000CA91FE17
:1040400020753800E05459FEE09C410010B5029CF8
:1040500074B9DB1C9C0800EB0230002300F5805093
:1040600004E000BF51F8042B02605B1CA342F9D3AB
:10407000002010BDFEE70907090E002804DB00F14F
:10408000E02080F80014704700F00F0000F1E020FD
:1040900080F8141D704700008AB0FDF73DF8FEF768
:1040A000D5F9FEF7C3F8FEF79DF8FEF7DDF8584C9A
:1040B0004FF0010B022084F800B02076032084F832
:1040C0003000042084F848000020CDE9060B05905C
:1040D0000090019002900390049059460E20CDE983
:1040E000081069464B48FCF77BFB08B172B6FEE747
:1040F0004848FCF7C5FE08B172B6FEE70221454804
:10410000FCF7FDFA08B172B6FEE74248FCF73CFA4C
:104110004149DFF808A14A1C08B172B6FEE789469A
:1041200090463E48FFF774FEE0B34D4689F800B074
:10413000FCF7E4FFA860002505EB45060AEBC6077F
:104140003879800706D504EBC600FCF7F1F90120A9
:10415000FCF7CAFE3879400706D504EBC600FCF729
:10416000B7FA0120FCF7C0FE38794746C00718F8B7
:10417000050008D090B904EBC600FCF7DFF950B990
:1041800007F805B007E048B104EBC600FCF7D3F927
:1041900008B9002078550120FCF7A6FE6D1CEDB291
:1041A000042DC9D399F800004E46D0B1FCF7A6FF04
:1041B000B168401A642814D900254746785D50B18B
:1041C00005EB450004EBC000FCF7B5F9002078557D
:1041D0000120FCF789FE6D1CEDB2042DEED300200A
:1041E000307000254646705D50B105EB45010AEB85
:1041F000C100083090EC050A04EBC100FCF7CEF9D1
:104200006D1CEDB2042DEED30320FCF76DFE88E7A4
:104210001C010020EC0200200C000020880200207D
:104220004FF04070E1EE100A7047000000000000FF
:104230000000010203040607080900005C420008B0
:10424000000000201C010000C401000878430008A1
:104250001C0100203C240000E001000800000000D8
:10426000000000000000000000000000000000004E
:10427000000000000100000010000000000000002D
:104280000024F400DD2A00080D2B0008192B00087B
:10429000412B00086D2B0008BD2A0008E92A000800
:1042A0000403090412010002020200408304405783
:1042B00000020102030100001A03000000000000D8
:1042C00000000000000000000000000000000000EE
:1042D00000000000A10400089504000891040008F3
:1042E000C9040008ED0400080000000081018200FC
:1042F0000A0600020000004001000000090243001D
:10430000020100C03209040000010202010005247C
:104310000010010524010001042402020524060006
:10432000010705820308001009040100020A0000C9
:10433000000705010240000007058102400000005F
:1043400035270008A5250008DB280008000000002C
:1043500039260008F1240008672500080000000045
:104360000000000000000000B92600087D260008BB
:08437000F9260008712600087F
:040000050800018965
:00000001FF
