:020000040800F2
:10000000F80600202902000851160008951500087E
:100010000D1600081F040008F11900080000000078
:100020000000000000000000000000004719000868
:10003000CD0500080000000053160008491900080B
:10004000430200084302000843020008430200087C
:10005000430200084302000843020008430200086C
:10006000430200084302000843020008430200085C
:10007000430200084302000843020008430200084C
:10008000430200084302000843020008430200083C
:10009000210400084302000843020008430200084C
:1000A000430200084302000843020008430200081C
:1000B000430200084302000843020008430200080C
:1000C00043020008430200084302000843020008FC
:1000D00043020008430200084302000843020008EC
:1000E00043020008430200084302000843020008DC
:1000F00043020008430200084302000843020008CC
:1001000043020008430200084302000843020008BB
:1001100043020008430200084302000843020008AB
:10012000430200084302000843020008430200089B
:10013000430200084302000843020008430200088B
:10014000430200084302000843020008430200087B
:10015000430200084302000843020008430200086B
:10016000430200084302000843020008430200085B
:100170004302000843020008430200080000000098
:10018000430200084302000800F002F800F03CF8C7
:100190000AA090E8000C82448344AAF10107DA45E2
:1001A00001D100F031F8AFF2090EBAE80F0013F0F8
:1001B000010F18BFFB1A43F001031847941A0000FF
:1001C000B41A0000103A24BF78C878C1FAD8520790
:1001D00024BF30C830C144BF04680C6070470000C1
:1001E0000023002400250026103A28BF78C1FBD840
:1001F000520728BF30C148BF0B6070471FB501F0E0
:1002000001FD1FBD10B510BD00F0CFF81146FFF77E
:10021000F5FF01F067FC00F0EDF803B4FFF7F2FF23
:1002200003BC00F0F5F80000094880470948004782
:10023000FEE7FEE7FEE7FEE7FEE7FEE7FEE7FEE796
:10024000FEE7FEE704480549054A064B70470000F3
:10025000E119000889010008F8000020F8060020D4
:10026000F8020020F802002053EA020C00F0698036
:100270002DE9F04B4FF00006002B1FBFB3FA83F5BA
:1002800003FA05F424FA05F65E4012BF1643B2FAEB
:1002900082F502FA05F4C5F120051EBF22FA05FC1D
:1002A00044EA0C04203556EA044C4FEA144418BFC3
:1002B000641C4FF000084FF00009904271EB030CF2
:1002C00039D3002919BFB1FA81F701FA07F6B0FA5C
:1002D00080F700FA07F6C7F120071EBF20FA07FCD7
:1002E00046EA0C062037B6FBF4FCA7EB0507103FE7
:1002F00007F01F0BCBF120060CFA0BFB2CFA06F6CD
:1003000044BFB3460026202FA4BF5E464FF0000B2B
:100310005BEA060C08BF4FF0010B19EB0B09ABFBB6
:10032000027C48EB0608C01B06FB02CC0BFB03CC8F
:1003300071EB0C01C1E70B46024641464846BDE859
:10034000F08B13B54FF000004FF00001AFF30080C9
:10035000BDE81C4070474FF0000200B513469446BC
:100360009646203922BFA0E80C50A0E80C50B1F10D
:100370002001BFF4F7AF090728BFA0E80C5048BF21
:100380000CC05DF804EB890028BF40F8042B08BFBF
:10039000704748BF20F8022B11F0804F18BF00F8BB
:1003A000012B7047704770477047754600F02CF876
:1003B000AE4605006946534620F00700854618B052
:1003C00020B5FFF73FFFBDE820404FF000064FF09B
:1003D00000074FF000084FF0000B21F00701AC467A
:1003E000ACE8C009ACE8C009ACE8C009ACE8C00999
:1003F0008D46704710B50446AFF300802046BDE837
:100400001040FFF70ABF0000004870479800002026
:1004100001491820ABBEFEE7260002007047FEE748
:10042000014800F048BA00003C000020FB2201F027
:10043000AFBBFD2201F0ACBBFC2201F0A9BB000068
:100440002DE9F0470C462DED048B816821B9016937
:10045000082901D3006820B10020BDEC048BBDE861
:10046000F087E178B4F801000A01217940BA42EA44
:100470001117627901F00F0142EA012621784FF04D
:10048000010901F00F080D091021F2EE090ABAEE78
:10049000090A01F08FFBB0EE408A0C21F3EE040A4A
:1004A000BBEE040A384601F085FBF0EE408A0C21D1
:1004B000F3EE0C0ABBEE0C0A304601F07BFBA6798A
:1004C000B0EE409AE47900F031FD084981F80090DF
:1004D00081F801808D7081ED018AC1ED028A81ED84
:1004E000039A0E744C7448610120B6E76400002042
:1004F0002DE9F04714002DED048B82B0F0EE428A16
:10050000B0EE619AF0EE419AB0EE608A894682467A
:1005100000D12B4C1020D4EC020A01F09BFA80464B
:1005200094ED031AD4ED020A0C20B0EE480A01F053
:1005300091FA9FED258A07460C209FED221AF0EED6
:10054000480AB0EE690A01F085FA06460C20B1EEC1
:10055000041AF0EE480AB0EE490A01F07BFA0546AB
:1005600094ED051AD4ED040A0C20B0EE680A01F0EF
:1005700071FA01464FEA18208DF800008DF80180CD
:1005800038098DF80200380140EA16208DF8030082
:100590008DF8046028098DF80500280140EA112033
:1005A0008DF806008DF8071008236A464946504624
:1005B00001F02FFA02B0BDEC048BBDE8F08700001B
:1005C000101C00080000FA4300000000704772B6DB
:1005D000FEE790F82020012A07D0022A05D0416AC0
:1005E00041F48021416201207047006842690A435A
:1005F000426100207047F0B590F820500468A4686C
:10060000012D05D0022D03D0416A41F480214DE037
:1006100014F0406F01D1E50045D5C4F30164012514
:10062000A5401D608D684FF4C0739DB1CE68354301
:100630004E6845EAC605066803EB0417F5514FF40A
:10064000C275076805EB04150E697E51097D012905
:1006500005D009E00E88CD6845EA4655EBE701680C
:100660004E5946F480764E511179D2F805504FF428
:10067000C67641EA0521056806EB0416A9511178F2
:10068000D2F801204FF4C47541EA0221026805EB5B
:1006900004155151006803EB0411425842F0010265
:1006A00042500020F0BD416A41F400114162012036
:1006B000F0BD000010B590F82020012A07D0022AD2
:1006C00005D0416A41F480214162012010BD3B48C0
:1006D000D0F8002242F00102C0F80022D0F8002237
:1006E00022F47C52C0F80022D0F800224B6A42EA81
:1006F0000322C0F800220A7D02F01F0301229A4063
:10070000D0F81C329343C0F81C32CB69B3B9D0F88F
:100710000C329343C0F80C328C894B6864F31F434E
:100720004C6900EBC404C4F840320C890B6864F3D4
:100730001F434C6900EBC404C4F84432CB69012B5D
:1007400016D1D0F80C321343C0F80C320C884B6829
:1007500064F31F434C6900EBC404C4F840320C89B5
:10076000CB6864F31F434C6900EBC404C4F8443203
:100770008B69002BD0F804320ED01343C0F804323A
:100780000B69002BD0F8143208D01343C0F8143290
:10079000096A012904D008E09343EFE79343F5E7A2
:1007A000D0F81C121143C0F81C12D0F8001221F02E
:1007B0000101C0F80012002010BD000000640040DC
:1007C000704770B590F82040012C05D0022C03D062
:1007D000416A41F4802128E0046809B32469A40730
:1007E00020D04FF4D874056804EB01142D5915F08E
:1007F0000405956005682D591AD0ED085560056807
:100800002C5904F00204D4604FF4DA74056804EB48
:1008100001142E5906F00F06082E0CD308250DE002
:10082000E468DCE7416A41F400114162012070BDD7
:100830006D0D1560E3E72D5905F00F05156105688D
:100840002D59C5F30725956105682C59240C546171
:100850004FF4DC72046802EB0112A4581C700468A7
:10086000A458240A5C700468A458240C9C70046882
:10087000A258120EDA704FF4DE72046802EB011215
:10088000A4581C710468A458240A5C710468A45814
:10089000240C9C710468A258120EDA71006829B108
:1008A000016941F020010161002070BDC16841F083
:1008B0002001C160F8E72DE9F05F054600680024DB
:1008C0004669D0F804908768D0F80CB0D0F810A032
:1008D000D0F81880F10748D0F90714D001218160C1
:1008E000B80703D5284600F010FA0CE0780702D5C7
:1008F0004FF4006407E0380702D54FF4805402E05B
:10090000284600F001FAF80516D529684FF48070E2
:100910008860B80503D5284600F0F9F90CE07805A1
:1009200002D544F4005407E0380502D544F480446D
:1009300002E0284600F0EAF9F80316D529684FF4DA
:1009400080308860B80303D5284600F0E2F90CE057
:10095000780302D544F4004407E0380302D544F498
:10096000803402E0284600F0D3F9300707D55FEA6B
:10097000CB6004D52968102044F40074C860700767
:100980004FF0080707D55FEA0B7004D52868C760E9
:10099000284600F059F9B00706D52868C0688007D6
:1009A00002D0284600F051F9700607D55FEACA6008
:1009B00004D52968102044F480640861B00607D586
:1009C0005FEA0A7004D528680761284600F06CF9D0
:1009D000F00606D528680069800702D0284600F096
:1009E00064F9B00308D55FEAC96005D5296810200D
:1009F0004860284600F05AF9F00307D55FEA09700D
:100A000004D528684760284600F084F9300446D5AC
:100A10005FEA497040D5F00504D55FEAC87001D09F
:100A200044F00104B00504D55FEA887001D544F0B4
:100A30000204700504D55FEA487001D544F004044F
:100A4000300529D518F0700F26D008F07000402826
:100A500015D006DC102809D020280AD0302816D15D
:100A60000AE050280ED0602811D10EE044F00804AE
:100A70000DE044F010040AE044F0200407E044F0E4
:100A8000400404E044F0800401E044F480742868E9
:100A9000816921F070018161296804204860002C7F
:100AA00005D0686A204368622846FFF789FEBDE8E2
:100AB000F09F70B5040003D094F8200010B104E05A
:100AC000012070BD204600F081F82068016841F0E7
:100AD0000101016000F02AFA0546052604E000F055
:100AE00025FA401B0A2811D820684068C007F6D0B4
:100AF0002068016821F00201016000F017FA054644
:100B00000BE000F013FA401B0A2806D9606A40F493
:100B10000030606284F82060D2E720684068800777
:100B2000EFD4207E0128206801683DD021F08001AB
:100B30000160607E01282068016838D021F0400102
:100B40000160A07E01282068016833D021F02001D7
:100B50000160E07E0128206801682ED041F010017C
:100B60000160207F01282068016829D021F0080158
:100B70000160607F01282068016824D021F0040111
:100B80000160D4E902010843D4E904121143084387
:100B90006168491E08432168C86100206062012025
:100BA00084F82000002070BD41F08001C0E741F0D2
:100BB0004001C5E741F02001CAE721F01001CFE76D
:100BC00041F00801D4E741F00401D9E710B586B03F
:100BD000044614216846FFF7BEFB18492068884286
:100BE00029D11748016841F000710160006800F0E8
:100BF0000070059012481038016841F00101016051
:100C00000068694600F0010005904FF4C050009064
:100C100002200190012002900320039009200490FB
:100C2000084800F08BF800221146142000F0ECF97F
:100C3000142000F0DBF906B010BD00000064004095
:100C40004038024000000240704700B589B007AB51
:100C50006A460021FFF7B5FD002813D10498082843
:100C600010D3029880B104280CD10198C0F304611C
:100C7000C0B2022906D1FD2804D1FD2207A9684689
:100C800000F06AFD09B000BD0098FD2806D00028DC
:100C9000F8D107A96846FFF7D3FBF3E7FD2207A9C0
:100CA000684600F0D7FCEDE77047704770470000DA
:100CB00070B5044690F82000012804D0606A40F422
:100CC0000020606218E0022084F82000206801689B
:100CD00021F00101016000F029F905460EE000BF96
:100CE00000F024F9401B0A2808D9606A40F400305B
:100CF0006062052084F82000012070BD20684068F3
:100D0000C007EDD1606270BD704770477047704793
:100D1000704770477047000070B5044600F006F950
:100D20000546601C02D004480078044400F0FEF838
:100D3000401BA042FAD370BD2C0000202DE9F84FD3
:100D4000DFF8BCA10022012503264FF00F090AF1AC
:100D5000040BAAF1040E00BF0B6805FA02F423404D
:100D6000A34270D10F7907F00307012F01D0022FA2
:100D700016D187684FEA420806FA08FC27EA0C07F2
:100D8000D1F80CC00CFA08FC4CEA070CC0F808C0FB
:100D90004768A7430C79C4F3001494403C43446073
:100DA0000C79E443A4070AD0C4684FEA420C06FA5F
:100DB0000CF7BC438F6807FA0CF72743C7600C7920
:100DC00004F00304022C12D1D40800EB840CDCF8EC
:100DD00020405707FF0E09FA07F824EA0804D1F863
:100DE000108008FA07F848EA0408CCF82080046864
:100DF0004FEA420C06FA0CF7BC430F7907F00307E1
:100E000007FA0CF7274307604C6814F4403F70D092
:100E10003C4C276847F480472760246822F003078A
:100E200004F480440094384C07EB040CDCF80848C8
:100E300097074FEA177809FA08F7BC43334FB842CF
:100E400002D1002724E054E0314FB84201D10127FC
:100E50001EE0304FB84201D1022719E02E4FB842B0
:100E600001D1032714E02D4FB84201D104270FE030
:100E70002B4FB84201D105270AE02A4FB84201D1D1
:100E8000062705E0284FB84201D1072700E00827D0
:100E900007FA08F72743CCF80878DAF800405746F5
:100EA000D1F804C09C435FEACC2C00D51C433C60C5
:100EB000DBF800405F46D1F804C09C435FEA8C2C0D
:100EC00000D51C433C60DEF800407746D1F804C0F2
:100ED0009C435FEA8C3C00D51C433C60084F083FB4
:100EE0003C68D1F804C09C435FEACC3C00D51C436D
:100EF0003C60521C102AFFF42FAFBDE8F88F0000B1
:100F0000083C0140443802400030014000000240EB
:100F10000004024000080240000C024000100240A1
:100F20000014024000180240001C02400148806882
:100F3000704700002C0000200248816802781144AC
:100F4000816070472C0000200B4810B5016841F407
:100F500000710160016841F480610160016841F441
:100F600080710160032000F06FF80F2000F006F898
:100F700000F024F8002010BD003C024070B50D4D7B
:100F800004464FF47A712878B1FBF0F00A490968F9
:100F9000B1FBF0F000F0EAFA48B9102C07D20022B9
:100FA0002146501E00F030F800206C6070BD01201A
:100FB00070BD00002C000020380000200A4808B551
:100FC000016841F480410160006800F480400090B5
:100FD0000548001F016841F080510160006800F081
:100FE0008050009008BD000044380240002809DB12
:100FF00000F01F02012191404009800000F1E02033
:10100000C0F8001170470000F0B40E4B1B680C468E
:10101000C3F30223C3F10705042D00D90425191DCC
:10102000072901D2002300E0DB1E012606FA05F1A4
:10103000491E214099409E40761E16403143F0BC27
:1010400000F0D7BC0CED00E0064900F0070208688C
:101050004FF6FF03184040EA0220034A104308609D
:10106000704700000CED00E00000FA052DE9F047A4
:101070000E46050065D0DFF81481D8F80000F7B2FD
:1010800000F00700B04207D288F80070D8F80000DE
:1010900000F00700B04254D128683D4C810712D5BA
:1010A000400703D5206840F4E0502060287800070E
:1010B00003D5206840F4604020602068A96820F0D3
:1010C000F000084320602878C0072DD030496868B8
:1010D0000839012812D0022813D0032811D009683A
:1010E000890700292DDA216821F0030101432160DD
:1010F000FFF71CFF814641F2883A0EE00968890338
:10110000EFE709688901ECE7FFF710FFA0EB0901A1
:10111000514502D90320BDE8F0872068696800F0D6
:101120000C00B0EB810FEFD1D8F80010404601F071
:101130000701B14207D90770006800F00700B0420C
:1011400001D00120E7E72878400705D52068E96845
:1011500020F4E050084320602878000706D5206876
:10116000296920F4604040EAC100206000F018F8CE
:101170002168084AC1F30311515CC8400649086060
:1011800006480068FFF7FAFE0020C4E7003C024072
:1011900008380240401C00083800002030000020C1
:1011A000154810B5006810F00C02144813D0411017
:1011B000042A0FD0082A0ED10F4C241F226823685E
:1011C00002F03F025B0207D52068C0F38810A0FB45
:1011D000010106E0084610BD2168C1F38811A1FB9A
:1011E00000010023FFF740F82168C1F30141491CC9
:1011F0004900B0FBF1F010BD083802400024F400B3
:101200002DE9F84F04006ED02078DFF84C93C0072A
:10121000A9F104054AD009F104000168C1F3810174
:10122000012908D00068C0F3810002280AD1D9F84A
:101230000000400206D52868800337D56068002882
:10124000E1D033E06068B0F5803F10D0B0F5A02F5A
:10125000286810D020F480302860286820F480208E
:1012600028606068A8B1FFF761FE06460DE02868B7
:1012700040F48030F4E740F480202860F7E700BFB6
:10128000FFF754FE801B642873D828688003F7D5C5
:101290000CE0FFF74BFE064605E000BFFFF746FEF9
:1012A000801B6428F0D828688003F7D42078DFF802
:1012B000AC8280074FF0000A3ED5A748001D0168A8
:1012C00011F00C0F08D00068C0F3810002280BD188
:1012D000D9F80000400207D42868800716D5E068D6
:1012E000012800D112E033E1E068B8B10120C8F86C
:1012F0000000FFF71BFE064605E000BFFFF716FEE5
:10130000801B0228C0D828688007F7D52868216983
:1013100020F0F80040EAC10028600DE0C8F800A005
:10132000FFF704FE064604E0FFF700FE801B0228DC
:101330001FD828688007F7D42078000722D5864F69
:1013400087486169703771B101210160FFF7EEFDD7
:10135000064604E0FFF7EAFD801B022809D838683A
:101360008007F7D50EE0C0F800A0FFF7DFFD0646C6
:1013700005E082E0FFF7DAFD801B02287DD838689F
:101380008007F7D42078400768D5DFF8CCB1002774
:101390000BF13C0BDBF80000C0000BD4DBF80010B5
:1013A00041F08051CBF80010DBF80000012700F07D
:1013B000805000906B4E3068C00510D4306840F407
:1013C00080703060FFF7B2FD009005E0FFF7AEFDE2
:1013D0000099401A022850D83068C005F6D55E4EF4
:1013E000A0686C3601280FD00528306810D020F096
:1013F00001003060306820F004003060A068B8B1AF
:10140000FFF794FD00900FE0306840F00100F4E732
:1014100040F004003060F7E7FFF788FD0099411ABB
:1014200041F28830814266D830688007F4D50EE0FA
:10143000FFF77CFD009007E0FFF778FD0099411A67
:1014400041F28830814256D830688007F4D42FB1F9
:10145000DBF8001021F08051CBF80010A069C8B370
:101460003D49091D0968C1F3810102294AD00228BA
:10147000504607D0C8F8600000E03CE0FFF756FD9A
:1014800004463BE04746C8F86000FFF74FFD0646BC
:1014900005E000BFFFF74AFD801B02282BD8286813
:1014A0008001F7D4D4E907010843A16A2E4A49080C
:1014B00002EB0141626A41EA8211084394F82C1060
:1014C00040EA0161C9F8001001203866FFF72EFDDF
:1014D000044606E03EE000BFFFF728FD001B02289F
:1014E00009D828688001F7D534E000BFFFF71EFD5A
:1014F000001B022802D90320BDE8F88F286880016C
:10150000F4D427E00128F7D0D9F80000E26900F40C
:10151000800191421CD1226A00F03F01914217D113
:1015200047F6C071626A0140B1EB821F10D1A26A16
:101530004FF0FF3300F4403103EB5202B1EB024FA6
:1015400006D194F82C1000F07060B0EB016F01D060
:101550000120D1E70020CFE70438024000004742D5
:10156000800E4742007000400000FFFF10B5401E93
:10157000B0F1807F01D3012010BD4FF0E024606105
:101580000F21601700F035FA0020A06107202061CC
:10159000002010BDFEE70000104810B50E490160A4
:1015A0000321416000214FF420228160C0E9031231
:1015B0004FF4801242610176417681760122C27633
:1015C00001774177FFF775FA002803D0BDE8104096
:1015D000FEF7FDBF10BD0000006400403C0000208D
:1015E000094808B5016841F080010160016801F017
:1015F00080010091016841F001010160006800F084
:101600000100009008BD000030380240FEE710B530
:101610008AB0002101220446CDE90612039104910B
:101620000E20CDE9082005910091019102916946B3
:101630002046FFF73FF818B92046FFF739FB10B1F5
:1016400001200AB010BD02212046FEF7C2FFF8E7D4
:10165000FEE770472DE9F05F2DED048B83682BB911
:101660000369082B02D30068904204D00020BDEC2F
:10167000048BBDE8F09FCA78B1F8010013010A7924
:1016800091F8008043EA121A4B7902F00F0243EA04
:1016900002298A79CB7902F00F0443EA042740BA81
:1016A0004FF0010B9609C2F34015C2F3001410214C
:1016B000DFED1C0A9FED1C0A00F090FAB0EE408AA4
:1016C0000C21DFED1A0A9FED1A0A504600F086FA47
:1016D000F0EE408A0C21F3EE010ABBEE010A484607
:1016E00000F07CFAB0EE409A00EE107ADFED110ABD
:1016F000B8EE400A60EE209AFFF718FC0E4981F818
:1017000000B081F801808E70CD700C7181ED028A7D
:10171000C1ED038A81ED049AC1ED059A886101202B
:10172000A5E70000B81E4941B81E49C1000030427B
:10173000000030C2CDCCCC3D7C0000201CB5002385
:1017400041EA02210093019341F0407108236A4667
:1017500000F06FF91CBD00002DE9F0472DED048B62
:101760008368042B0DD10369082B0AD34368C3F3A4
:101770000465C3F30F20DBB2022D02D1D2B29A422C
:1017800004D00020BDEC048BBDE8F0874B880A88AC
:101790005FBA8B88C98852BA4DBA012161F3070438
:1017A00060F30F24810B000A5EBA61F317448006D0
:1017B00001D0012300E0002398464FF000091021DA
:1017C000DFED1D0A9FED1D0A104600F007FAF0EE4E
:1017D000408A1021DFED1A0A9FED1A0A384600F000
:1017E000FDF9B0EE409A1021F3EE010ABBEE010ABA
:1017F000304600F0F3F9F0EE409A00EE105ADFEDBB
:10180000120AB8EE400A20EE208AFFF78FFB0F493C
:101810000C70220A4A70220C8A7081F8038081F8C9
:101820000490C1ED028A81ED039AC1ED049A81ED25
:10183000058A88610120A5E7B81E4941B81E49C143
:1018400000003042000030C2CDCCCC3D7C000020F6
:101850002DE9F04714002DED048BF0EE619A82B073
:10186000B0EE429AF0EE418AF0EE601AB0EE408A95
:101870008946824600D12A4C1020B0EE610AD4EC91
:10188000020A00F00BF9804694ED031AD4ED020A27
:101890001020B0EE680A00F001F9DFED238A074658
:1018A00010209FED201AF0EE680AB0EE690A00F0F1
:1018B000F5F806461020B1EE041AF0EE680AB0EE14
:1018C000490A00F0EBF8054694ED051AD4ED040A38
:1018D0001020B0EE480A00F0E1F849EA002040F09C
:1018E00080714FEA18208DF800008DF80180380AC9
:1018F0008DF80200300A8DF804008DF80560280A82
:101900008DF806008DF803708DF8075008236A469D
:10191000504600F08EF802B0BDEC048BBDE8F087B5
:10192000281C00080000FA43000000001CB500233A
:1019300041EA02210093019341F0806108236A4645
:1019400000F077F81CBD7047FFF7F6BA30B593B0DA
:1019500030216846FEF7FFFC14210CA8FEF7FBFCC3
:101960001D480025016841F080510160006800F0C9
:10197000805011901948016841F48041016000686D
:10198000022400F480401190012000900004019096
:101990008001CDE9064008AA0420A82182E81300AE
:1019A0000B906846FFF72CFC08B172B6FEE70CA955
:1019B0000F2081E831004FF4A0500F904FF4805079
:1019C000109005210CA8FFF751FB002801D072B63A
:1019D000FEE713B030BD0000403802400070004008
:1019E0000248016841F470010160704788ED00E031
:1019F000FEE70907090E002804DB00F1E02080F86B
:101A00000014704700F00F0000F1E02080F8141D72
:101A1000704700B587B00091002101910291CDE996
:101A200003138DF8141006AB6946FEF7E4FD07B00A
:101A300000BD10B588B00024CDE900410421CDE9F6
:101A4000021404938DF8144006AB6946FEF7D3FDEB
:101A500008B010BD71EE601A01218140B4EEE00AB9
:101A6000491EF1EE10FA02D2B0EE600A06E0B4EEC2
:101A7000C10AF1EE10FA01DDB0EE410A70EE600A23
:101A800000EE101AB8EE400A20EE800AC0EE210ADD
:101A9000BCEEE00A10EE100A80B2704771EE601AD8
:101AA00001218140B4EEE00A491EF1EE10FA02D2A3
:101AB000B0EE600A06E0B4EEC10AF1EE10FA01DD04
:101AC000B0EE410A70EE600A00EE101AB8EE400A5D
:101AD00020EE800AC0EE210ABCEEE00A10EE100AE9
:101AE00080B27047FFF730FAFFF730FFFFF778FD5D
:101AF000FFF752FD2248FFF78AFD08B172B6FEE7F4
:101B00006420FFF709F901211D48FEF78FFC0A2028
:101B1000FFF702F901211A48FEF78EFC0A20FFF7B1
:101B2000FBF8FD227F211648FFF708FE0A20FFF789
:101B3000F3F8144C207840B1231D134A012193EC93
:101B4000050A0F48FEF7D4FC03E001210C48FEF71C
:101B500070FC607858B104F118030C4A94ED0A0A3D
:101B60007F21D3EC040A0648FFF772FE04E0FD2251
:101B70007F210348FFF7DAFE0A20FFF7CDF8D9E707
:101B80003C00002000000020101C0008281C000859
:101B90001CB506A4D4E90034CDE900348DF8072043
:101BA00008236A46FFF735FF1CBD0000FFFFFFFF5B
:101BB000FFFFFF0001EE100A70EEC00A0122B8EE2E
:101BC000411A8A40521E21EE201A00EE902AF8EEA9
:101BD000601AC1EE210A30EE800A704701EE100A49
:101BE00070EEC00A0122B8EE411A8A40521E21EE60
:101BF000201A00EE902AF8EE601AC1EE210A30EEAB
:101C0000800A70474FF04070E1EE100A7047000004
:101C1000000048C1000048410000A0C10000A041F0
:101C20000000E0C10000E041B81E49C1B81E4941B2
:101C3000000030C200003042000088C1000088412E
:101C4000000000000000000001020304060708096C
:101C5000701C0008000000203C000000C4010008C7
:101C6000AC1C00083C000020BC060000E00100089D
:101C700001010000000000000000000000004040E2
:101C80000000003F00000000000000000000000015
:101C9000000040400000003F000000000100000084
:0C1CA00010000000000000000024F40010
:040000050800018965
:00000001FF
