:020000040800F2
:10000000982B0020B9020008012D0008EF2A0008F3
:10001000552C0008230400082F4B000800000000A6
:1000200000000000000000000000000099300008FF
:100030008D0600080000000097300008A530000879
:10004000D3020008D3020008D3020008D30200083C
:10005000D3020008D3020008D3020008D30200082C
:10006000D3020008D3020008D3020008D30200081C
:10007000D3020008D3020008D3020008D30200080C
:10008000D3020008D3020008D3020008D3020008FC
:100090003548000895060008D3020008D30200087E
:1000A000D3020008D3020008D3020008D3020008DC
:1000B000D3020008D3020008D3020008D3020008CC
:1000C000D3020008D3020008D3020008D3020008BC
:1000D000D3020008D3020008D3020008D3020008AC
:1000E000D3020008D3020008D3020008D30200089C
:1000F000D3020008D3020008D3020008D30200088C
:10010000D3020008D3020008D3020008D30200087B
:10011000D3020008D302000825310008D3020008EA
:10012000D3020008D3020008D3020008D30200085B
:10013000D3020008D3020008D3020008D30200084B
:10014000D3020008D3020008D3020008D30200083B
:10015000D3020008D3020008D3020008D30200082B
:10016000D3020008D3020008D3020008D30200081B
:10017000D3020008D3020008D3020008D30200080B
:10018000D3020008D3020008D3020008D3020008FB
:10019000D302000800000000D3020008D3020008C8
:1001A000D3020008D3020008D3020008D3020008DB
:1001B000D3020008D3020008D3020008D3020008CB
:1001C000D3020008D3020008D3020008D3020008BB
:1001D000D3020008D302000800F002F800F05CF837
:1001E0000AA090E8000C82448344AAF10107DA4592
:1001F00001D100F051F8AFF2090EBAE80F0013F088
:10020000010F18BFFB1A43F001031847104B000001
:10021000304B00000A444FF0000C10F8013B13F083
:10022000070408BF10F8014B1D1108BF10F8015B4F
:10023000641E05D010F8016B641E01F8016BF9D142
:1002400013F0080F1EBF10F8014BAD1C0C1B09D199
:100250006D1E58BF01F801CBFAD505E014F8016B0B
:1002600001F8016B6D1EF9D59142D6D3704700009D
:100270000023002400250026103A28BF78C1FBD8AF
:10028000520728BF30C148BF0B6070471FB504F04C
:1002900023FD1FBD10B510BD00F08AF81146FFF711
:1002A000F5FF04F055FC00F0A8F803B4FFF7F2FFE7
:1002B00003BC00F0AFF80000094880470948004738
:1002C000FEE7FEE7FEE7FEE7FEE7FEE7FEE7FEE706
:1002D000FEE7FEE704480549054A064B7047000063
:1002E00015310008D9010008981F0020982B002024
:1002F000982300209823002010B5203AC0F00B80EE
:10030000B1E81850203AA0E81850B1E81850A0E819
:100310001850BFF4F5AF5FEA027C24BFB1E8185073
:10032000A0E8185044BF18C918C0BDE810405FEAE3
:10033000827C24BF51F8043B40F8043B08BF70475F
:10034000D20728BF31F8023B48BF11F8012B28BF64
:1003500020F8023B48BF00F8012B70474FF0000225
:1003600000B5134694469646203922BFA0E80C50AB
:10037000A0E80C50B1F12001BFF4F7AF090728BF86
:10038000A0E80C5048BF0CC05DF804EB890028BF02
:1003900040F8042B08BF704748BF20F8022B11F02B
:1003A000804F18BF00F8012B7047704770477047A7
:1003B000754600F02BF8AE4605006946534620F01E
:1003C0000700854618B020B5FFF784FFBDE8204040
:1003D0004FF000064FF000074FF000084FF0000B01
:1003E00021F00701AC46ACE8C009ACE8C009ACE8B4
:1003F000C009ACE8C0098D46704710B50446AFF39C
:1004000000802046BDE81040FFF74FBF004870470E
:10041000381F002001491820ABBEFEE7260002006D
:100420007047FEE7002070470020704710B500229B
:100430000449054803F06DF80449034803F060F8E7
:10044000002010BD38170020680A0020380F002057
:1004500010B50446096804F05DFA2146034803F02C
:100460004FF8024803F014F8002010BD680A00207D
:1004700010B504F021FB002010BD00000A46094918
:1004800010B5D1F8BC1211B1D1F8141209B1012084
:1004900010BD0146034803F03CF8BDE81040014898
:1004A00003F0A1B8680A0020FB2100F0C9B8FD21C3
:1004B00000F0C6B8FC2100F0C3B8B4EEE00AF1EEDB
:1004C00010FA02D2B0EE600A08E0F0EE411AB4EE83
:1004D000E10AF1EE10FA01DDB0EE410A70EE601AA9
:1004E00000EE100A71EE600AB8EE400A21EE800AB2
:1004F00080EE201ABCEEC10A10EE100A80B27047DE
:1005000018B10349086000207047012070470000BF
:10051000000000202DE9F04781462DED048BF0EE20
:10052000419AB0EE608A4078314900EB400001EB1F
:10053000800582B095ED001AF0EE428AB0EE619A25
:10054000F1EE410A4FF6FF70FFF7B7FF95ED011A84
:10055000044640F6FF7AF1EE410A5046B0EE480AF2
:10056000FFF7ABFF9FED248A804650469FED211A8E
:10057000F0EE480AB0EE690AFFF79FFF07465046C3
:10058000B1EE041AF0EE480AB0EE490AFFF795FF03
:1005900095ED021A06465046F1EE410AB0EE680AA1
:1005A000FFF78BFF0146200A8DF800008DF801400F
:1005B0004FEA18108DF802004FEA081040EA1720A1
:1005C0008DF803008DF8047030098DF805003001B6
:1005D00040EA11208DF806008DF8071099F8000008
:1005E000694600F00BF802B0BDEC048BBDE8F08763
:1005F000E44C00080000FA430000000070B50F4C06
:1006000005468AB00E46206800F014FA98B1002022
:100610000821CDE90050CDE902014904CDE90401EA
:100620004900CDE90610089032466946206800F07E
:10063000D9F80AB070BD0220FBE7000000000020DE
:100640001CB506A3D3E90023CDE900238DF80710DC
:1006500000786946FFF7D2FF1CBD0000FFFFFFFFD7
:10066000FFFFFF00FE21FFF7EBBF30EEC01A00EEE8
:10067000900AF8EE600A21EE201A00EE901AF8EEC9
:10068000601AC1EE210A30EE800A7047704772B6D8
:10069000FEE70000014800F0D4B90000BC040020CF
:1006A000F0B5D1E901650C692C430D68C6B145F080
:1006B00080452C43D1E90665354391F820704E6999
:1006C000406D46EA076635438E8903EBC30300EBB2
:1006D000C30045EA0645E0E802450023084C0AE06D
:1006E00044EA8544E6E7D618D55CD6F801601B1DC0
:1006F00045EA062520C0CD68655D9D42F3D8F0BD72
:10070000FC4C000830B590F85C30012B07D0022B70
:1007100005D0016E41F002010166012030BD046880
:10072000A36D4D0701D0DD071DD011F0380F01D0AA
:100730009D0718D511F4E07F01D05D0713D511F4A2
:10074000F05F01D01D070ED511F4604F01D0DD061A
:1007500009D511F4403F01D09D0604D511F47C0F5A
:1007600005D05D0603D4E56D45F00105E5654C0750
:1007700001D0DC071DD111F0380F01D09C0718D42F
:1007800011F4E07F01D05C0713D411F4F05F01D0C5
:100790001C070ED411F4604F01D0DC0609D411F40B
:1007A000403F01D09C0604D411F47C0F06D05B06B8
:1007B00004D50368DC6D44F00204DC650B0604D547
:1007C000036853F8DC4F14431C60CB0504D5036861
:1007D00053F8E04F14431C600068426D0A434265C1
:1007E000002030BD70B5044690F85C00022803D0AC
:1007F000206E40F0080007E02068D0F8C4309B026B
:1008000005D5206E40F400702066012070BDD0F840
:10081000C400C0F301452B462046FFF741FF216885
:100820000120A840C1F8CC00A065002070BD10B523
:1008300090F85C20012A07D0022A05D0016E41F011
:1008400002010166012010BD0A687AB10B7B0A69BA
:100850000C7A42EA43734A69406C496842EA8472FE
:1008600000EBC100C0E90032002010BD0B7A4A69DC
:100870000C8A42EA83720B7B006CDB06496843EA10
:1008800004431A4340F82120EEE730B590F85C505D
:10089000039C012D05D0016E41F004010166012089
:1008A00030BD0901006841EA820141EA430150F884
:1008B000802F214322F03F0211430160002030BD10
:1008C00090F85C30012B05D0016E41F00401016607
:1008D00001207047006842EA0121816400207047CE
:1008E00090F85C10012905D0016E41F00401016609
:1008F000012070470068C16841F40001C160002018
:1009000070477047704700000068402905D0D0F854
:10091000980000BF00F00F007047D0F89000F9E792
:10092000F0B590F85C40022C03D0016E41F0080154
:1009300062E00468402947D0D4F898502D0758D079
:10094000D4F89850D4F89860C5F30125F60106D57F
:10095000D4F88040E40502D56D1C05F00305C46C95
:1009600005EBC50604EBC604266816F08046566003
:10097000266844D026F06046166026682C4F06F0A4
:100980000056966040CC06F00046166134F8046BC1
:10099000B6B2D66154F8046CC6F30346D66054F878
:1009A000046C06F48016566154F8046C06F40016C4
:1009B000966154F8046CC6F30666166254F8046C2B
:1009C000F60F5662002622E0D4F890502D0710D082
:1009D000D4F89050D4F89060C5F30125F60106D5FF
:1009E000D4F88040A40502D56D1C05F00305846C85
:1009F000B6E7016E41F4807101660120F0BDC6F3D7
:100A00008A46B9E714F806C003F806C0761CD2F887
:100A10000CC017F80CC0B445F4D80068402903D0C6
:100A2000C0F89C500020F0BDC0F89450FAE70000D8
:100A3000FC4C00080068D0F8C40000F007007047C4
:100A400070472DE9F05F04460068016D426D01F4C6
:100A5000E05102EA0108016D426D01F0070102EA6E
:100A60000109016D426D01F0380102EA010A016DD0
:100A7000476D01F471010F40016D426D01F4602179
:100A8000456D02EA010B016DCE43710607D4E943BF
:100A9000490604D4402101652046FFF7D1FFF00547
:100AA0000ED4E843C0050BD42068D0F8D820D0F885
:100AB000E01011404FF480720265204600F061FAA8
:100AC000B8F1000005D0216808654146204600F0D5
:100AD0005AFAB9F1000005D0216808654946204658
:100AE00000F0B6F9BAF1000005D02168086551465A
:100AF000204600F02DFAB00509D4E843800506D45D
:100B000021684FF400700865204600F03DFA300679
:100B10000DD4E84300060AD42068D0F8D420D0F8D9
:100B2000DC10114080220265204600F02BFAB00450
:100B300009D4E843800406D421684FF400500865C6
:100B4000204600F01DFA300409D4E843000406D41E
:100B500021684FF400400865204600F010FA700448
:100B60000AD4E843400407D421684FF48040086564
:100B7000206E40F080002066BBF1000005D02168A7
:100B8000086559462046FFF7BDFE27B12068076576
:100B9000206E38432066206E002802D02046FFF7E2
:100BA000B0FEBDE8F09F00002DE9F041040006D042
:100BB000DFF8F48194F85C00002518B107E001200B
:100BC000BDE8F08184F85D50204600F0F9F8206817
:100BD000816921F01001816100F0F2FA06460327D5
:100BE00005E000BF00F0ECFA801B0A2811D820684D
:100BF00080690007F6D42068816941F001018161B4
:100C000000F0DEFA06460BE000F0DAFA801B0A2854
:100C100006D9206E40F00100206684F85C70CEE7B3
:100C200020688069C007EFD02068816941F0020127
:100C300081612168414502D15C4960680860207C7F
:100C400001282068816937D041F040018161607CD2
:100C500001282068816932D021F480418161A07C23
:100C60000128206881692DD041F48051816120687C
:100C70008169A26821F44071114381612068816912
:100C800021F0A40181612068016921F01001016156
:100C9000E068012819D010B302281BD020688169B0
:100CA00041F0800181612068016941F0100101611A
:100CB000E06803280ED012E021F04001C6E741F4BD
:100CC0008041CBE721F48051D0E72068816941F071
:100CD000040103E02068816941F020018161207EE8
:100CE000E26940066FF0FF0101EB0222A0F1007003
:100CF0001043226AA38A521E10430A0202EB0343E6
:100D000018432368D861A068B0F5407F10D1D4E9BA
:100D10000A0301EB0321401E0843216B131303EB6D
:100D200001110843A18C02EB014108432168C8600E
:100D3000206850F8C01FE26B114301601D4A216812
:100D40001B48914200D11C481C4A914201D100F538
:100D5000D460206451F8802FA38E22F4F81242EA66
:100D600003420A6000F170016164216851F8802F2C
:100D700094F8383022F0706242EA03620A6000F1AF
:100D8000B001A164D831E164D831216518316165C1
:100D9000D83100E020C08842FCD3A565256601203B
:100DA00084F85C0000200BE7006400400065004010
:100DB00000A400400068004050A70040006C0040C4
:100DC00010B59CB00446142115A8FFF7C7FA5421AA
:100DD0006846FFF7C3FA1B49206888422FD1801468
:100DE000009040030E90684600F0CEFF08B1FFF778
:100DF0004EFC1548816D41F000718165816D01F0F7
:100E000000711A91C16C41F00801C164C06C0221EB
:100E100000F008001A900320CDE915010021CDE96A
:100E200017100920199015A9084800F0AFF8002202
:100E30000121152000F02AFA152000F019FA1CB043
:100E400010BD00000064004000100240000C00488B
:100E50002DE9F04782462DED028B8CB0C8076DD08E
:100E600066E06B4602AA40215046FFF759FD002874
:100E700064D10298F0BB0398E0BB0498D0BB0598FE
:100E8000082855D19DF8001011F00F0050D0072808
:100E90004ED82D4A00EB400002EBC0042B4A14F858
:100EA000170C0E0900EB400002EB80059DF80320B3
:100EB000D5ED000A13019DF80420BDF8010043EAB6
:100EC00012189DF8053002F00F0240BA43EA0227DB
:100ED000B1EE600A4FF6FF71183CFFF7C6FBF0EE6B
:100EE000400A40F6FF79B0EE608AD5ED010AB1EE16
:100EF000600A00E01CE049464046FFF7B6FBF0EE12
:100F0000400A4946F0EE608AD5ED020A3846B1EE55
:100F1000600AFFF7AAFB9DF806109DF807002671EE
:100F200084ED028AC4ED038A84ED040A217560759C
:100F300040215046FFF7E8FC002892D10CB0BDECF0
:100F4000028BBDE8F087000004000020E44C00089C
:100F5000704790F85C10012905D0016E41F0040142
:100F6000016601207047022180F85C1001688A69DF
:100F700022F001028A61002101660846704770472D
:100F80007047704770477047704700002DE9F04F79
:100F9000DFF80C92002301260325A9F1040B85B08C
:100FA0000F2709F1040AABF1040EF1E006FA03FC85
:100FB00012EA0C027ED00C7904F00304012C01D05B
:100FC000022C20D1846800945C0005FA04F8049493
:100FD000009C24EA08040094D1F80C80049C08FAD0
:100FE00004F8009C48EA0408C0F80880446824EA31
:100FF0000C0491F804C0CCF3001C0CFA03FC4CEA7E
:10100000040CC0F804C00C79E443A40702D18C6836
:10101000012C0ED0C4684FEA430805FA08FC24EA04
:101020000C04D1F808C00CFA08FC4CEA040CC0F817
:101030000CC00C7904F00304022C16D1DC0800EB80
:10104000840CCDF808C0DCF820C05C074FEAD468F7
:1010500007FA08F42CEA040C0C6904FA08F444EAD0
:101060000C04DDF808C0CCF8204004684FEA4308BF
:1010700005FA08FC24EA0C0491F804C00CF0030CF7
:101080000CFA08FC4CEA040CC0F800C04C6814F4DC
:10109000403F7CD0434CD4F860C04CF0010CC4F805
:1010A00060C0246E23F0030C04F0010400943E4C55
:1010B000644400E06BE00294A4684FEA837C4FEA4A
:1010C0001C7807FA08FC24EA0C04B0F1904F06D013
:1010D000DFF8D8C0604505D14FF0010C20E04FF09B
:1010E000000C1DE0DFF8C8C0604502D14FF0020CD3
:1010F00016E0DFF8C0C0604502D14FF0030C0FE0EE
:10110000DFF8B4C0604502D14FF0040C08E0DFF80E
:10111000ACC0604502D14FF0050C01E04FF0060C69
:101120000CFA08FC4CEA040C029CC4F808C0D9F87C
:101130000040CC46D1F8048094435FEAC82800D52B
:101140001443CCF80040DAF80040D446D1F80480CB
:1011500094435FEA882800D51443CCF80040DBF8BC
:101160000040DC46D1F8048094435FEA883800D51B
:101170001443CCF80040DEF80040F446D1F8048077
:1011800094435FEAC83800D51443CCF800405B1C98
:101190000C682246DC407FF409AF05B0BDE8F08F53
:1011A0000804014000100240000001400004004813
:1011B00000080048000C00480010004800140048D7
:1011C0000148806870470000CC0000200248816818
:1011D0004268114481607047CC00002010B50024A3
:1011E000032000F073F80F2000F008F808B1012484
:1011F00001E000F025F8204610BD000070B50E4E4D
:1012000005460024706898B14FF47A71B1FBF0F094
:101210000A490968B1FBF0F001F05CFA40B9102D01
:1012200006D200222946501E00F030F8356000E05A
:101230000124204670BD0000CC000020D800002012
:101240000A4882B0016E41F001010166016E01F0B1
:1012500001010091816D41F080518165806D00F048
:101260008050009002B000F087BD000000100240E6
:10127000002809DB00F01F02012191404009800095
:1012800000F1E020C0F8001170470000F0B40E4BF0
:101290001B680C46C3F30223C3F10705042D00D9D4
:1012A0000425191D072901D2002300E0DB1E0126B9
:1012B00006FA05F1491E214099409E40761E1640CF
:1012C0003143F0BC03F034BC0CED00E0064900F003
:1012D000070208684FF6FF03184040EA0220034A5D
:1012E00010430860704700000CED00E00000FA05B4
:1012F00001220168C0F8D022002280F8C82231F80B
:10130000540F40F001000880088840F00200088077
:1013100010467047704710B50C0607D501F007015D
:1013200001EB810100EBC100103005E001EB810110
:1013300000EBC10000F5A87099B232B1012202732E
:101340000181190C4181002010BD00220273C1806F
:10135000F9E701EB810200EBC202D0F8D802526A31
:1013600002F079BA01EB810200EBC202D0F8D80298
:10137000D2F8642102F0C3BA70B504460B0601F03E
:10138000070000EB800104EBC1014FF001024FF0B8
:10139000000502D54A74103103E081F8515101F57E
:1013A000A871087094F89002012808D084F890225F
:1013B000206802F08EFF84F89052002070BD022059
:1013C00070BD70B5044601F00F002279904201D93A
:1013D000012070BD0B0601F0070000EB800104EB5B
:1013E000C1014FF001024FF0000502D54A741031DF
:1013F00003E081F8515101F5A8718D70087094F8DF
:101400009002012808D084F89022206803F000F8A8
:1014100084F89052002070BD022070BD2DE9F04785
:1014200004685FEA42480B788D69B4F850804FF049
:10143000000C4BF68F7748F2800648F68F7948F219
:10144000C00A444428D540F2024808EBC30834F8E7
:101450000840C4F30904A54203D32D1B8D6102D0BB
:101460000BE0C1F818C0D0F800C03CF823503D4054
:1014700085F4005535432CF82350520609D50B78D6
:10148000056835F8232002EA090242EA0A0225F833
:10149000232074B30A8927E040F2064808EBC3080A
:1014A00034F80840C4F30904A54203D32D1B8D6111
:1014B00002D00BE0C1F818C0D0F800C03CF82350AF
:1014C0003D4085F4005535432CF82350520609D48D
:1014D0000D78036833F8252002EA090242EA0A027D
:1014E00023F825202CB14A8949690068234603F076
:1014F000F0FA2046BDE8F0872DE9F05F0546006868
:101500000C465FEA42681646D1F818C02278B0F857
:10151000508048F6BF7A48F2800B48F68F774CF23D
:1015200080094FF6FF734FF4004E4FF00001404426
:101530007DD540F2024808EBC20830F80800C0F33D
:101540000900844514D9BCEB000CC4F818C010D0B5
:10155000760408D5D5F800C03CF822603E4046EA43
:1015600009062CF8226094F82420012A60D076E144
:10157000A161607810B1012813D01AE02868B0F892
:101580005030184400EBC200B0F80224C2F3090244
:10159000A0F80224B0F8022442F40042A0F8022489
:1015A00007E02868B0F85030184400EBC200A0F8FB
:1015B00002146278286812B1012A11D018E0B0F83C
:1015C00050100844217800EBC100B0F80614C1F3B4
:1015D0000901A0F80614B0F8061441F4004105E032
:1015E000B0F850201044227800EBC200A0F8061496
:1015F000E07802280BD12278296831F8220000EA2D
:101600000A0080F0200040EA0B0021F82200217837
:101610002846FFF79EFE700408D521782A6832F824
:101620002100384040EA090022F82100C3E04DE0E3
:10163000626902446261E2690244E2612669226AE7
:10164000B24202D33046111A03E084F824100AB1E2
:1016500010462162617811B101292BD033E029684D
:10166000B1F850201144227801EBC201B1F80224F4
:10167000C2F30902A1F8022401F2024158B13E2846
:101680000ED84208C60700D0521C0E8803EA8222F8
:1016900016430E8017E00A8842F400420A8012E0E6
:1016A0004209C30600D1521E0B884EEA8222134320
:1016B0000B8008E02968B1F850201144227801EB32
:1016C000C201A1F8020483B22289C4E040F20648B4
:1016D00008EBC20830F80800C0F30900844514D3B1
:1016E000BCEB000CC4F818C010D0760408D4D5F8B0
:1016F00000C03CF822603E4046EA09062CF8226011
:1017000094F82420012A59D0A9E0A161607810B191
:10171000012813D01AE02868B0F85030184400EBC4
:10172000C200B0F80224C2F30902A0F80224B0F803
:10173000022442F40042A0F8022407E02868B0F82E
:101740005030184400EBC200A0F8021462782868F8
:1017500012B1012A11D018E0B0F8501008442178D5
:1017600000EBC100B0F80614C1F30901A0F806149B
:10177000B0F8061441F4004105E0B0F850201044E0
:10178000227800EBC200A0F80614E07802280BD102
:1017900021782A6832F8210000EA0A0080F020004F
:1017A00040EA0B0022F8210021782846FFF7D1FDFE
:1017B00070047FF532AF0020BDE8F09F62690244FB
:1017C0006261E2690244E2612669226AB24203D39D
:1017D0003046111A216204E00AB11046216284F8F1
:1017E00024106278296812B1012A2AD031E0B1F8B8
:1017F00050201144227801EBC201B1F80624C2F353
:101800000902A1F8062401F2064158B13E280ED87B
:101810004208C60700D0521C0E8803EA82221643F3
:101820000E8016E00A8842F400420A8011E0420964
:10183000C30600D1521E0B884EEA822213430B804E
:1018400007E0B1F850201144227801EBC201A1F861
:101850000604628983B26169286803F055F9227829
:10186000296831F8220000EA0A0080F0300040EADE
:101870000B0021F822009EE701F0070101EB810136
:1018800000EBC100D0F86C0170472DE9F04104462F
:101890000F0601F0070000EB800104EBC1014FF0DF
:1018A00001064FF0000502D54E74103103E081F8B7
:1018B000515101F5A871022B0870C2F30A000861AA
:1018C000CB7000D10D7194F89002012809D084F8F2
:1018D0009062206802F048FB284684F89052BDE8E8
:1018E000F0810220FBE710B501F0070404EB84014E
:1018F00000EBC101C1E959230022C1F86C2181F834
:10190000512181F85041006801F5A87102F0D2FD23
:10191000002010BD70B5044601F007002279904206
:1019200001D9012070BD0B064FF000054FF00102F8
:1019300006D500EB800104EBC1014A74103107E0C9
:1019400001EB810104EBC10181F8515101F5A8714E
:101950008A70087094F89002012808D084F89022C8
:10196000206802F08DFD84F89052002070BD0220A6
:1019700070BD10B501F0070404EB840100EBC10158
:10198000C1E90923012281F834200B630023CB62D3
:101990004A7401F8104F006802F08CFD002010BD61
:1019A00010B50446006803F091F8010404D5204600
:1019B000BDE8104001F0A5B941050ED5206830F80A
:1019C000441F21F480610180204600F009F920467F
:1019D000BDE81040002100F02FB9410405D5206872
:1019E00030F8441F21F480417DE0810405D5206852
:1019F00030F8441F21F4005175E0C1041FD5206860
:101A000030F8401F21F004010180206830F8401FA9
:101A100021F00801018094F8C802012806D10020B5
:101A200084F8C80201462046FFF774FC204600F007
:101A3000EBF8206830F8441F21F4805153E0010591
:101A400012D5206830F8401F41F00801018020685D
:101A500030F8441F21F400610180206830F8401FF5
:101A600041F0040101800AE0010629D5206830F820
:101A7000441F21F08001018094F8C80218B120466B
:101A800000F00AF910BD206830F8401F41F0040151
:101A90000180206830F8401F41F0080101800120DA
:101AA00084F8C8022068B0F854003C2101EA900094
:101AB000C4F8CC022046BDE810400121FFF72ABC43
:101AC000810509D5206830F8441F21F40071018098
:101AD000204600F0ADF810BDC005FCD5206830F8F8
:101AE000441F21F48071018010BD000070B5040016
:101AF00004D094F89102002510B106E0012070BDD9
:101B000084F89052204600F03FF8032084F89102B8
:101B1000206802F075FC002001260BE000EB80013C
:101B200004EBC1014E740874CD740D624D62401C0B
:101B3000C0B28D6221798142F0D8002012E000BF4E
:101B400000EB800104EBC10181F8515181F8500193
:101B500081F85351C1F86051C1F86451401CC0B2C2
:101B6000C1F8685121798142EAD894E8070002F06F
:101B70003EFC257384F89162A07A012802D12046A8
:101B8000FFF7B6FB002070BD10B596B00446542197
:101B90006846FEF7E3FB1049206888421AD14014DA
:101BA000009000200F90684600F0EEF808B1FEF7B4
:101BB0006EFD0A48816D41F400018165806D00224F
:101BC00000F40000159005211420FFF75FFB14209E
:101BD000FFF74EFB16B010BD005C00400010024045
:101BE00070B5044640790125022801D0FEF74FFD6B
:101BF0002946D4F8D80201F06AFFD4F8D802BDE82B
:101C0000704001F01DBF000010B50446407A30B1AD
:101C10000648016821F00601016001F045FAD4F898
:101C2000D802BDE8104001F038BF000010ED00E020
:101C3000D0F8D80201F03BBF10B5044690F89002EE
:101C400001280AD0012084F890022173206802F054
:101C500054FF002084F8900210BD022010BDD0F87F
:101C6000D82200F52671104601F03DBF10B504469C
:101C700090F8900201280CD0012084F8900220688E
:101C800002F0CFFD206802F0ABFB002084F8900248
:101C900010BD022010BD000010B50446D0F8D802D7
:101CA00001F063FF607A002804D00348016841F026
:101CB0000601016010BD000010ED00E02B492C4B27
:101CC0000A6832214A432B4940B1B0F5007F0868C9
:101CD00029D020F4C06040F480602CE00868C0F394
:101CE0004120022804D051F8800F20F4807022E0B7
:101CF000D1F8800020F48070C1F88000086820F4DA
:101D0000C06040F400700860B2FBF3F0401C00E0DB
:101D1000401E4A69520501D50028F9D1486940059D
:101D20000AD503207047C0F34120022806D051F89D
:101D3000800F40F48070086000207047D1F8800068
:101D400040F48070C1F88000086820F4C06040F45E
:101D500000700860B2FBF3F0401C00E0401E4A69CE
:101D60005205DBD50028F9D1D8E70000D8000020C3
:101D700040420F00007000400248816841F48041F9
:101D800081607047007000402DE9F8430446006808
:101D90000026BB4D00035ED5A86D0027C00008D407
:101DA000A86D40F08050A865A86D012700F0805014
:101DB0000090DFF8D092D9F8001041F48071C9F892
:101DC0000010FFF7FDF9804606E000BFFFF7F8F9C5
:101DD000A0EB080002282BD8D9F80000C005F5D5E3
:101DE000D5F8900010F4407014D0216D814211D0CC
:101DF000D5F89000D5F8901020F4407041F480316F
:101E0000C5F89010D5F8901021F48031C5F89010E5
:101E1000C5F89000C00711D0FFF7D2F9804641F213
:101E2000883907E0FFF7CCF9A0EB0801494501D953
:101E300003260BE0D5F890008007F3D5D5F8900085
:101E4000216D20F440700843C5F890001FB1A86DC3
:101E500020F08050A8652078C00707D0D5F888000A
:101E6000616820F003000843C5F8880020788007E7
:101E700007D5D5F88800A16820F00C000843C5F804
:101E800088002078400707D5D5F88800E16820F061
:101E900030000843C5F888002078000707D5D5F83A
:101EA0008800216920F0C0000843C5F88800207828
:101EB000C00607D5D5F88800616920F44070084352
:101EC000C5F888002078800607D5D5F88800A16974
:101ED00020F440600843C5F888002078400607D504
:101EE000D5F88800E16920F440500843C5F888001F
:101EF0002078000607D5D5F88800216A20F44040F4
:101F00000843C5F888002088C00507D5D5F88800A3
:101F1000616A20F440300843C5F8880020688003D7
:101F200007D5D5F89C00A16A20F003000843C5F846
:101F30009C002088800507D5D5F88800E16A20F448
:101F400040200843C5F88800208840050FD5D5F803
:101F50008800216B20F440100843C5F88800206BEE
:101F6000B0F5801F03D1E86840F48010E860208855
:101F700000050FD5D5F88800616B20F440000843B8
:101F8000C5F88800606BB0F5800F03D1E86840F4B5
:101F90008010E8602088C0040FD5D5F88800A16BB8
:101FA00020F040700843C5F88800A06BB0F1807F36
:101FB00003D1E86840F48010E86020884FF00061A9
:101FC00080040ED5D5F88800E26B20F04060104305
:101FD000C5F88800E06B884203D1E86840F48010BF
:101FE000E860208840040ED5D5F88800226C20F0E7
:101FF00040601043C5F88800206C884203D1E8682F
:1020000040F48010E860208800040FD5D5F88800DF
:10201000616C20F040500843C5F88800606CB0F156
:10202000805F03D1E86840F48030E8602068C00336
:102030000FD5D5F88800A16C20F040400843C5F8C2
:102040008800A06CB0F1804F03D1E86840F4803084
:10205000E860206840030FD5D5F89C00E16C20F4BF
:1020600040100843C5F89C00E06CB0F5001F03D198
:10207000E86840F48010E8603046BDE8F88300006E
:1020800000100240007000402DE9F0470E460500A8
:102090004FF0000725D0DFF8AC81D8F8000000F041
:1020A0000F00B0420CD2D8F8001021F00F013143DC
:1020B000C8F80010D8F8000000F00F00B04210D1AE
:1020C0002968614CC80741F2883A5AD06868DFF83D
:1020D0007C91032808D0022820682DD040050028D4
:1020E0002CDB0120BDE8F08720688001F9D5E0688D
:1020F00000F00302E068C0F30310401C032A19D06B
:10210000534A00BFB2FBF0F0E268C2F3062250432C
:10211000E268C2F34162521C5200B0FBF2F0484543
:1021200017D9A06810F0F00F0CD0880711D5A86857
:1021300040B10EE0474AE5E78003D0E700F092F8AF
:10214000484506D9A06820F0F00040F08000A0606B
:102150008027A068696820F003000843A060FFF7AB
:102160002FF8814606E000BFFFF72AF8A0EB09012F
:1021700051453AD8A068696800F00C00B0EB810FB7
:10218000F2D12868810714D5400703D5A06840F430
:10219000E060A0602878000705D5A06820F46050B2
:1021A00040F4E060A060A068A96820F0F000084357
:1021B00004E0802F03D1A06820F0F000A060D8F8E0
:1021C0000010404601F00F01B14216D9016821F01C
:1021D0000F0131430160FEF7F3FF074607E000BF40
:1021E000FEF7EEFFC11B514501D903207AE7D8F86D
:1021F000000000F00F00B042F2D12878400705D56A
:10220000A068E96820F4E0600843A060287800072F
:1022100006D5A068296920F4605040EAC100A0609A
:1022200000F020F8A1680C4AC1F30311515C01F0E1
:102230001F01C8400949086009480068BDE8F04727
:10224000FEF7DCBF002002400010024000B4C404CE
:102250000024F40000127A000C4D0008D800002081
:10226000CC000020184910B58868C0F381021748D7
:10227000012A0BD08A684310C2F38102022A06D0D9
:102280008A68C2F38102032A03D0002010BD1846D9
:1022900010BDCA6802F00304CA68C2F30312521CDC
:1022A000032C02D0B0FBF2F001E0B3FBF2F0CA68FD
:1022B000C968C2F306225043C1F34161491C490079
:1022C000B0FBF1F010BD0000001002400024F4004B
:1022D0002DE9F84304007AD02078F84DC00747D0A4
:1022E000A868E96800F00C0001F003010C2802D096
:1022F000082817D001E0032914D06068B0F5803FAA
:1023000017D0B0F5A02F286817D020F480302860AF
:10231000286820F4802028606068E0B1FEF750FF54
:10232000064614E02868800322D560680028D2D0D1
:102330001EE0286840F48030EDE740F480202860FB
:10234000F7E700BFFEF73CFF801B642870D82868C1
:102350008003F7D50CE0FEF733FF064605E000BF2B
:10236000FEF72EFF801B6428F0D828688003F7D47E
:10237000207880074CD5A868E96800F00C0001F0CF
:1023800003010C2802D004280DD001E002290AD054
:10239000E068002828682BD040F480702860FEF7A1
:1023A0000FFF064619E02868400502D5E0680028BE
:1023B00091D06868217C20F0FE4040EA01606860AE
:1023C000BF480068FEF71AFF002800D120E072E144
:1023D000FEF7F6FE801B0228B8D828684005F7D51E
:1023E0006868217C20F0FE4040EA016068600FE0F0
:1023F00020F480702860FEF7E3FE064605E000BF8B
:10240000FEF7DEFE801B0228A0D828684005F7D41E
:102410002078000729D560690028D5F8940013D0EA
:1024200040F00100C5F89400FEF7CAFE064606E03B
:1024300090E000BFFEF7C4FE801B022886D8D5F8C6
:1024400094008007F6D510E020F00100C5F8940054
:10245000FEF7B6FE064604E0FEF7B2FE801B022839
:1024600078D8D5F894008007F6D42078400761D555
:10247000A86D0026C00008D4A86D40F08050A86563
:10248000A86D012600F0805000908E480168C905B3
:1024900011D40168804641F480710160FEF790FE1E
:1024A000074604E0FEF78CFEC01B022852D8D8F87D
:1024B0000000C005F6D5A068012815D00528D5F87C
:1024C000900016D020F00100C5F89000D5F89000DB
:1024D00020F00400C5F89000A06841F28838B8B137
:1024E000FEF76EFE07460EE0D5F8900040F00100C2
:1024F000F0E740F00400C5F89000F5E7FEF760FE55
:10250000C11B414526D8D5F890008007F6D50CE0D0
:10251000FEF756FE074604E0FEF752FEC11B41459A
:1025200018D8D5F890008007F6D41EB1A86D20F019
:102530008050A8652078800629D5A0690028D5F8A4
:10254000980013D040F00100C5F89800FEF738FE5F
:10255000064606E075E000BFFEF732FE801B02284B
:102560006FD8D5F898008007F6D510E020F001006C
:10257000C5F89800FEF724FE064604E0FEF720FEAC
:10258000801B02285DD8D5F898008007F6D4E06952
:10259000F0B3A968C1F3810103295DD0022828683E
:1025A00020F08070286003D0FEF70AFE04464BE05E
:1025B000FEF706FE064604E0FEF702FE801B022838
:1025C0003FD828688001F7D4F4E908016FF00F02C2
:1025D00002EB01110843218A5204490802EB4151E0
:1025E000A26841EA02210843217D4FF07E4249085A
:1025F00002EB41610843217B40EAC160E968324A4D
:1026000011400843E860286840F08070286000E0CE
:102610005EE0E86840F08070E860FEF7D1FD0446B7
:1026200005E000BFFEF7CCFD001B022809D8286892
:102630008001F7D54CE000BFFEF7C2FD001B022869
:1026400002D90320BDE8F88328688001F4D4E86843
:102650001E490840E8603BE00128F3D0E868226AA0
:1026600000F00301914226D1616A00F0F0020901F5
:10267000103991421FD1A26A00F4FE41B1EB022F42
:1026800019D194F82C2000F07841B1EBC26F12D12F
:10269000218E00F4C00249084905A1F500119142BC
:1026A00009D194F8341000F0C06049084906A1F13E
:1026B000007181420CD00120C4E7000000100240EC
:1026C000CC000020007000400C809F01FCFFEEFE5B
:1026D0000020B7E710B5401EB0F1807F01D3012084
:1026E00010BD4FF0E02460610F21601702F020FA66
:1026F0000020A06107202061002010BD70477047B6
:102700007047704770477047F0B590F83C20012A39
:1027100043D0012580F83C50022280F83D20036818
:102720005A689C681E4E1F4FDFF87CC0B34203D02E
:10273000BB4201D0634504D122F4700E4A6842EADC
:102740000E02DFF868E002EA0E02D1F800E04EEA7D
:10275000020EC3F804E00268B24212D0B2F1804F18
:102760000FD0134B9A420CD0124B9A4209D0124B05
:102770009A4206D0BA4204D0104B9A4201D0624528
:1027800004D1896824F080031943916080F83D509A
:10279000002180F83C100846F0BD0220F0BD00008A
:1027A000002C014000340140005001408FFFFFFD2C
:1027B0000004004000080040000C004000400140C0
:1027C000704710B5040003D094F83D0010B107E045
:1027D000012010BD002084F83C00204600F022F8C3
:1027E000022084F83D00211D206800F0A1FC01209A
:1027F00084F8480084F83E0084F83F0084F84000E4
:1028000084F8410084F8420084F8430084F84400CE
:1028100084F8450084F8460084F8470084F83D00B9
:10282000002010BD08B500680B49884212D10B4842
:10283000816D41F010018165806D002200F0100073
:10284000009003213620FEF721FDBDE80840362028
:10285000FEF70EBD08BD0000001000400010024051
:1028600090F83D10012901D001207047022180F825
:102870003D100168CA6842F00102CA60006813494D
:10288000884214D0B0F1804F11D0114988420ED047
:10289000104988420BD01049884208D00F4988421D
:1028A00005D00F49884202D00E49884207D181687D
:1028B0000D4A1140062906D0B1F5803F03D00168CA
:1028C00041F001010160002070470000002C014030
:1028D0000004004000080040000C004000340140AB
:1028E00000400140005001400700010070472DE901
:1028F000F04104460068C66805694FF00007A90763
:1029000013D5B10711D5F91E016101202077206888
:1029100080698007204602D0FFF7E8FF04E000F05E
:10292000B7F8204600F0B5F82777680716D5700786
:1029300014D521686FF00400086102202077206818
:10294000806910F4407F204602D0FFF7CFFF04E0FB
:1029500000F09EF8204600F09CF82777280715D550
:10296000300713D521686FF0080008610420207734
:102970002068C0698007204602D0FFF7B7FF04E057
:1029800000F086F8204600F084F82777E80616D590
:10299000F00614D521686FF0100008610820207738
:1029A0002068C06910F4407F204602D0FFF79EFFE8
:1029B00004E000F06DF8204600F06BF82777E80798
:1029C00008D0F00706D021686FF0010008612046AA
:1029D00000F060F8280601D4A80408D5300606D512
:1029E00021686FF4025008612046FFF788FEE80571
:1029F00008D5300606D521686FF48070086120463E
:102A0000FFF77CFE680608D5700606D521686FF0D2
:102A100040000861204600F069F8A80608D5B00615
:102A200006D521686FF0200008612046FFF768FE98
:102A3000E80208D5F00206D521686FF4801008611D
:102A40002046FFF75FFEA80208D5B00206D5216830
:102A50006FF4001008612046FFF753FE680208D5A6
:102A6000700206D521686FF4800008612046FFF7E8
:102A70004AFE28020AD5300208D521686FF400000A
:102A800008612046BDE8F041FFF79ABEBDE8F0813D
:102A90007047704770B50068104988421CD1104DCE
:102AA0006C78E87880B105F10800005D60B10D48F0
:102AB00004EB440100EBC100083090EC050A0A4821
:102AC00000EBC100FDF726FD641CE0B2072802D32D
:102AD00000200121A970687070BD00000010004046
:102AE000B400002010040020040000207047FEE71E
:102AF000F0B500230A24302537261F4611E000BF19
:102B0000B4EB107F02D905EB107C01E006EB107CE2
:102B100001F813C001EB430C00015B1C8CF8017041
:102B2000DBB29342ECD3F0BD70B5144812494FF4B8
:102B3000407201600021C0E901120123C1600374E9
:102B4000417481740822426100F1180602221024A7
:102B5000042586E834004262C0E90D31C1632830A3
:102B600080E834002838FEF71FF8002803D0BDE8BD
:102B70007040FDF78CBD70BD00640040BC040020B7
:102B80000D4808B5C16C41F02001C164C16C01F071
:102B900020010091C16C41F00101C164C16C01F0E0
:102BA00001010091C16C41F00801C164C06C00F0EA
:102BB0000800009008BD0000001002403EB500244F
:102BC0000E48009401940C490294C0E900144BF69D
:102BD0007F31C0E902418461FFF7F3FD08B1FDF7E1
:102BE00056FD0094694605480294FFF78DFD0028C4
:102BF00001D0FDF74CFD3EBD001000402005002037
:102C000010B500220F49104800F000FE08B1FDF792
:102C10003EFD0E490C4800F0D0FF08B1FDF737FD2E
:102C20000B49094800F048FC08B1FDF730FD0648A3
:102C300001F03EF8002803D0BDE81040FDF727BDA5
:102C400010BD0000DC000020680A00201C020020EB
:102C50002C010020FEE700002DE9F041264E002067
:102C6000A6F10F0507232A781118B1FBF3F403FB33
:102C70001414315DC9B3EFF3108772B6CA071F4849
:102C800007D004EB440100EBC100FDF70DFC01216E
:102C900016E08A0707D504EB440100EBC100FDF7FD
:102CA000E1FC02210CE0090704EB440100EBC10048
:102CB00003D5FDF7FCFB082102E0FDF7FBFB042137
:102CC00007B962B640B9305D88433055042903D155
:102CD00009490120C91F0855641CE0B22870072863
:102CE00001D300202870BDE8F081FFE7401CC0B28E
:102CF0000728B9D3F7E70000C30000200400002034
:102D0000FEE72DE9FC5F04464BF68F7848F280071A
:102D100040F68F7648F60F7A4FF0000BB3E1B0F82B
:102D2000441001F00F05082D02D30120BDE8FC9FDF
:102D3000EDB330F82510019109047ED530F8251047
:102D4000314041F0800120F8251005EB850004EBAF
:102D5000C00000F5A87990F85C0100286ED099F8C1
:102D6000030002286BD099F80020216831F8220076
:102D700048F68F73184048F2C003184321F8220028
:102D800099F80010206830F821205204B0F8502043
:102D900002EB000379D540F2024202EBC101595A1D
:102DA0008905890D009171D0B9F80820C1E0FFE7CD
:102DB000C9062AD4028802EA0A0242F400410180CC
:102DC000206804F11005B0F85010227C014440F254
:102DD000024000EBC200085AC0F30900E062616AD9
:102DE0000844606200212046FEF7B3FA207B0028E9
:102DF00094D0A869002891D1207B40F08001206800
:102E0000A0F84C1084F80CB03DE1018804F5A875D9
:102E10000A053CD5B0F850100A18297840F206404F
:102E200000EBC100105AC0F30900E86108281BD06C
:102E30002168088800EA080002E09DE055E066E0AD
:102E400080F48050384308802168088848F6BF72B3
:102E5000104080F010003843088021680888304016
:102E600040F08000088014E10823EA8804F5267108
:102E7000206801F02EFE21680888304040F0800074
:102E800008802046FEF7EBFEFDE047E045E0090440
:102E9000BAD50188314041F0800101802068B0F846
:102EA00050100A18297840F2064000EBC100105A71
:102EB00083059B0DEB610FD069690029A4D0EA88D6
:102EC000206801F006FEE96968690844686100212C
:102ED0002046FEF747FAD6E02168088800EA080095
:102EE00080F4405038430880CDE02068B0F850109E
:102EF00099F800300A1840F2064101EBC301515A1B
:102F00008905890D009119D0B9F8062011E04946CC
:102F10002046019AFEF782FA00900FE040F2064246
:102F200002EBC101595A8905890D009106D0B9F803
:102F30000A20D9F81410009B01F0CBFDD9F81C1021
:102F400000980144C9F81C10D9F8180020B1D9F82C
:102F500010100098814205D999F800102046FEF71C
:102F600001FA09E0D9F8141000980144C9F81410C6
:102F70004946206801F09EFA019800062ED505EB1F
:102F8000850004EBC001206830F8252002EA0A021F
:102F900042F4004220F82520C87C103101281ED0C0
:102FA0000198C0056BD42068B0F8502013180A7837
:102FB00040F2024000EBC200185A8A69C0F30900CF
:102FC000824255D9121A8A6154D04A6902444A6130
:102FD000CA691044C861206801F06CFA53E0C1F876
:102FE00018B0087B5A4610B30198400620D548789F
:102FF00010B1012812D03DE02068B0F850201044F4
:103000000A7800EBC200B0F80224C2F30902A0F86B
:103010000224B0F8022442F4004206E02068B0F82E
:10302000503018440B7800EBC300A0F8022421E0D4
:103030004B78206813B1012B11D01BE0B0F8502061
:1030400010440A7800EBC200B0F80624C2F309026B
:10305000A0F80624B0F8062442F4004205E0B0F8D7
:10306000503018440B7800EBC300A0F8062401E0B0
:10307000C1F818B009782046FEF76BF903E0204646
:10308000019AFEF739FA2068B0F8441009043FF5B8
:1030900046AE00204AE6704770470178407841EA22
:1030A00000207047FEF792B810B594B038216846FA
:1030B000FDF754F914210EA8FDF750F90020FEF792
:1030C000FDFD2120009001214FF48030019002206D
:1030D0000324CDE90610CDE908412A21CDE90A10E3
:1030E0000421CDE90C106846FFF7F2F808B172B67A
:1030F000FEE70F20CDE90E040020109011901290F1
:1031000004210EA8FEF7C0FF002801D072B6FEE72A
:1031100014B010BD0248016841F4700101607047AD
:1031200088ED00E00148FFF7E2BB00002005002029
:103130002DE9F04F02682C4B2C4E2D4FDFF8B4C018
:103140002D4C2E4D4FF0804B98420BD0584509D056
:10315000B04207D0B84205D0604503D0A04201D0AC
:10316000A84204D122F070084A6842EA0802DFF857
:103170009080DFF89090DFF890A0984211D05845E9
:103180000FD0B0420DD0B8420BD0604509D0A0425C
:1031900007D0404505D0484503D0504501D0A8424E
:1031A00003D122F44076CA6832434E6922F080028D
:1031B00032438E68C6620E688662984209D0A04289
:1031C00007D0404505D0484503D0504501D0A8421E
:1031D00001D109690163016841F004010160012125
:1031E00041610260BDE8F08F002C01400004004006
:1031F00000080040000C0040003401400050014035
:1032000000400140004401400048014010B50A461A
:10321000024903A000F0CAFA004810BD380D002092
:1032200043444320436F6E66696700002DE9F04117
:103230000C46D0F8C422D0F8BC12E9B104EB8406E5
:1032400000EB86050027AB693BB102EBC602126AB0
:10325000B3FBF2F602FB163282B1C1F81472D0F859
:10326000C00203692BB1D1F80802224601F50471AE
:1032700098470020BDE8F0810320FBE700231A46B1
:103280002146AF6100F07AFCF3E770B5D0F8BC429C
:1032900005466CB100F069FBC4F80C02D5F8C01209
:1032A000D4F80402CA6804F503719047002070BD89
:1032B000032070BD70B50446812100F0C3FA0025DB
:1032C00025870121204600F0BDFAA4F8785182211B
:1032D000204600F0B7FAA4F84C50A4F84E50D4F8A9
:1032E000BC0248B1D4F8C00204F52F74406880478E
:1032F000206800F033FE2560002070BD1220088099
:1033000000487047FC00002010B5D0F8BC4284B1E2
:10331000D0F8C01259B194F80002FF2807D08B688A
:1033200094F8012221469847FF2084F800020020EB
:1033300010BD032010BD00000A2101800048704725
:10334000440100204321018000487047940100207F
:103350004321018000487047500100204321018033
:1033600000487047D80100202DE9F04704464FF48B
:10337000077000F0F5FD05004FF0000735D0C4F8E8
:10338000BC52207C4FF010084FF40079012680B326
:10339000402302228121204600F03DFB2687402366
:1033A00002220121204600F036FBA4F87861A4F83F
:1033B0004E80082303228221204600F02CFBA4F833
:1033C0004C60D4F8C00200688047C5F81472C5F894
:1033D0001872207CD5F80422A8B140230121204690
:1033E00000F025FB0020BDE8F0870220C4F8BC7285
:1033F000F9E7FFE74B4602228121204600F00BFB54
:1034000026874B46CCE74B46E8E7000010B50A4656
:10341000024903A000F0CAF9004810BD380D002091
:1034200043444320496E7465726661636500000021
:103430000420088000487047F800002010B50A46B4
:10344000024903A000F0B2F9004810BD380D002079
:1034500053544D6963726F656C656374726F6E6906
:103460006373000010B50A46024903A000F09EF9FC
:10347000004810BD380D002053544D33322056699A
:10348000727475616C20436F6D506F727400000030
:1034900010B5D0F8BC1251B1027C002AD1F8042238
:1034A00007D04023012100F0C2FA002010BD032004
:1034B00010BD4FF40073F5E719B1C0F8C012002039
:1034C000704703207047000010B51A2008800A4892
:1034D0000168001D0468001D0068081809D0082252
:1034E0000649FFF705FB0549042210312046FFF786
:1034F000FFFA0248801E10BD9075FF1F12010020C8
:10350000D0F8BC0218B1C0F80412002070470320A4
:103510007047D0F8BC0228B1C0F81022C0F80812D9
:1035200000207047032070472DE9FC410646D0F883
:10353000BC7200200C468DF80000ADF80400054672
:1035400037B1207810F0600128D0202944D102E062
:103550000320BDE8FC81E288C2B1000660780AD58C
:10356000D6F8C0128B6839469847E288072A00D9F6
:103570000722394628E087F80002A07987F801027F
:10358000E2883946304600F06CF82AE0D6F8C012DE
:10359000607800228B682146984722E0607830B13D
:1035A00001281ED00A2809D00B2815D110E096F862
:1035B0009C02032810D1022201A905E096F89C0282
:1035C000032809D101226946304600F064F808E07A
:1035D00096F89C02032804D02146304600F036F8C5
:1035E00003252846B5E710B5D0F8BC12012219B161
:1035F000D1F8143213B10FE0032010BD0122C1F83D
:103600001422D1F81022C262D1F81032D1F8082267
:10361000812100F0B3FA0022104610BD10B5D0F899
:10362000B8220AB152689047002010BD134610B569
:103630000A46002100F0FBF9002010BD134610B52A
:103640000A46002100F09AFA002010BD10B5044689
:10365000802100F078FA2046BDE81040002100F0FB
:1036600072BA10B50323C0F89432C0F8582113463B
:10367000C0F85C210A46002100F0D9F9002010BDF5
:1036800010B50521C0F8941200231A46194600F01F
:10369000CEF9002010BD10B50223C0F8943282612B
:1036A0001346C2610A46002100F068FA002010BDEE
:1036B00010B50421C0F8941200231A46194600F0F0
:1036C0005DFA002010BDF8B504460020ADF80000FA
:1036D00048880D46010A08295FD2DFE801F05E0440
:1036E00009175E5E3C45D4F8B412207C0A6819E0E4
:1036F000207C02260028D4F8B80205D0C16A6846AA
:1037000088470146467039E0816AF8E7C0B206286A
:1037100043D2DFE800F0030A1014181CD4F8B402F6
:10372000426805E0694690471CE0D4F8B40282681C
:1037300092B3207CF6E7D4F8B402C268F8E7D4F874
:10374000B4020269F4E7D4F8B4024269F0E7D4F8AD
:10375000B4028269ECE7207CF0B9D4F8B802416B7E
:1037600068468847014609E0207CA8B9D4F8B80229
:10377000016B68468847014607204870EA888AB18D
:10378000BDF8000040B1824200D90246ADF80020E9
:103790002046FFF780FFF8BDFFE729462046FFF7E8
:1037A00055FFF8E72046FFF783FFF4E770B50023E5
:1037B00000281ED00025044602E06D1CEDB2641CFA
:1037C0002678002EF9D1022404EB450414801278E7
:1037D000CA545B1C0322CA5400245B1C06E0CA5472
:1037E0005B1CDAB28C54521CD3B2401C0278002A03
:1037F000F5D170BD01004FF0000004D0012901D0C7
:10380000022901D0032070470120704778B10023BE
:10381000C0F8B832C0F8C032C0F8CC3209B1C0F834
:10382000B412012180F89C12027000F0A3B80320AA
:10383000704710B5D0F8C402FDF7C3FDBDE81040D5
:10384000FFF7D8BF10B5D0F8C402FDF795FDBDE86D
:103850001040FFF7CFBF70B51646044621B194F86B
:103860009C02032841D048E0D4F8941204F11400DB
:103870000025022932D1D0E902318B4206D95A1AE9
:10388000826031462046FFF7D9FE0FE0994214D1FD
:103890004068884211D3D4F8981288420DD2002291
:1038A00011462046FFF7CAFEC4F8985200231A4674
:1038B0001946204600F0BBF810E094F89C0203285B
:1038C00005D1D4F8B802C16809B1204688478021E3
:1038D000204600F038F92046FFF7D2FE94F8A00207
:1038E00001280AD184F8A05207E0D4F8B80242694E
:1038F0001AB120469047002800D1002070BD10B5B5
:103900001346044621B194F89C02032823D02AE0F0
:10391000D4F8941204F5AA70032924D1D0E9021234
:1039200091420AD98A1A8260C068824200D3024654
:1039300019462046FFF77AFE15E094F89C0203280A
:1039400005D1D4F8B802016909B12046884720465C
:10395000FFF7AEFE07E0D4F8B80282691AB120463C
:103960009047002800D1002010BDD0F8C402FDF718
:1039700083BF000010B51E490446C1F8D802C0F844
:10398000C4121C4808600820087102204871C871E0
:103990000020087248728872C8720846FEF7A6F8BE
:1039A00008B1FCF774FE0022D4F8C40218231146B3
:1039B00004F53174FDF7AFFC582300228021206804
:1039C000FDF7A9FCC023002281212068FDF7A3FC9C
:1039D0004FF48873002201212068FDF79CFC4FF40E
:1039E0008073002282212068FDF795FC002010BD25
:1039F0008C070020005C00400A0601F07F01D0F82F
:103A0000C40201EB810100EBC10001D5807C70474D
:103A100090F85201704710B51C461346D0F8C40206
:103A20002246FDF732FFBDE81040FFF7E3BE10B5B8
:103A3000D0F8C402FDF757FFBDE81040FFF7DABE2B
:103A400070B50125044680F89C520020C4F8940209
:103A50006060C4F8A402D4F8B802E0B1D4F8BC1293
:103A600021B1426812B10021204690470022402334
:103A700011462046FFF7CFFF4026A4F86451334695
:103A8000002280212046C4F86061FFF7C4FFA584AE
:103A90000020266270BD032070BD90F89C1204299E
:103AA00003D190F89D1280F89C120020704710B549
:103AB000D0F8B81221B190F89C22032A02D004E079
:103AC000032010BDC96901B18847002010BD0174F1
:103AD0000020704710B5D0F8C402FEF7ADF8BDE87D
:103AE0001040FFF787BE70B5044600F2AA200546D5
:103AF00000F04DF80120C4F89402B4F8B002C4F804
:103B0000980294F8AA0210F01F010AD001290ED0E1
:103B1000022912D000F080012046BDE8704000F07C
:103B200012B829462046BDE8704000F0C3B82946C7
:103B30002046BDE8704000F0E8B929462046BDE8BF
:103B4000704000F042B910B5D0F8C402FDF7E2FEB3
:103B5000BDE81040FFF74EBE10B5D0F8C402FEF726
:103B600085F8BDE81040FFF745BE90F89C1280F83C
:103B70009D12042180F89C120020704710B5D0F8E7
:103B8000C402FDF7F6FEBDE81040FFF733BE70B586
:103B9000054611F8010B2870087868704C1C204607
:103BA000FFF77BFA6880A41C2046FFF776FAA8800E
:103BB000A01CFFF772FAE88070BD38B504460020FB
:103BC000ADF8000049B1C4F8B812C96A19B1684625
:103BD0008847C4F8CC02002038BD032038BD024617
:103BE0000320D2F8B832002B02D01B6810461847C9
:103BF000704700002DE9F0410F462C4E89780025D2
:103C000004463170012906D939462046FFF71EFDCA
:103C10000320BDE8F08194F89C0202280CD0032810
:103C20001DD039462046FFF711FD31782046FFF7B9
:103C3000F5FC03252846ECE799B320466160FFF7C1
:103C4000CEFF050004D039462046FFF7FFFCF1E720
:103C50002046FFF72DFD032084F89C02EAE74FF091
:103C60000208C1B1606888421BD0C1B22046FFF78C
:103C7000D5FC317820466160FFF7B1FF050010D018
:103C800039462046FFF7E2FC21792046FFF7C6FCC3
:103C900084F89C82CEE784F89C8220466160FFF71E
:103CA000BDFC2046FFF704FDC4E7000040010020F2
:103CB000FFF752BF2DE9F0410A78002512F06002AB
:103CC00008D0202A01D0402A72D1D0F8B8229268B8
:103CD000904732E04B78002201264FF002080A2B71
:103CE00066D2DFE803F0405D6557650805652C285E
:103CF000FFF7E9FC5EE004468888D0B9C888C0B9FF
:103D00004888802815D200F07F0794F89C02032889
:103D10000FD084F89E7239462046FFF7DBFE20461E
:103D2000FFF7C6FC17B184F89C8243E084F89C62DC
:103D300040E020463CE0FFF75DFF05463AE0CB88D7
:103D4000012B35D190F89C32012B04D0022B02D0EC
:103D5000032B2DD104E08260012200F1080116E05E
:103D60000122011D13E090F89C32012B03D0022B9D
:103D700001D0032B1CD1CB88022B19D1C260D0F803
:103D8000A41209B1C0F80C80022200F10C01FFF767
:103D900082FC0FE0498801290CD1C0F8A46211E02F
:103DA00090F89C32012B08D0022B06D0032B04D0B4
:103DB000FFF74CFC2846BDE8F08149880129F9D17C
:103DC000C0F8A422FFF774FCF4E72DE9F0410D469A
:103DD000044628780026097910F060000BD02028CE
:103DE00001D040286DD1D4F8B80229468268204617
:103DF0009047064686E06878A8B3012822D00328B9
:103E00007CD194F89C02022802D0032876D10BE0E2
:103E1000002973D0802971D02046FFF794FE8021BD
:103E20002046FFF790FE6DE0688838B931B18029EF
:103E300004D0E88810B92046FFF785FE2046FFF73A
:103E400037FC5FE094F89C020228E1D0032855D1AA
:103E50006888A8BB480602D02046FFF7EAFC204647
:103E6000FFF726FCBFE7FFE794F89C020027022833
:103E700002D0032842D111E009B180293ED10806C1
:103E800001F07F0000EB800004EB800101D51431CC
:103E900001E001F5AA7102220F602BE0080601F093
:103EA0000F0000EB800004EB80000BD5808C40B14C
:103EB00001F07F0000EB800004EB800514350CE07E
:103EC00020E01BE0B0F86401C0B101F07F0000EB1E
:103ED000800004EB800505F5AA7541B1802906D064
:103EE0002046FFF789FD10B10120286000E02F6017
:103EF000022229462046FFF7CEFB03E02946204652
:103F0000FFF7A4FB3046BDE8F08170B5064608789F
:103F100000240D4610F0600003D0202801D0402876
:103F200017D196F89C02012803D0022801D003285B
:103F30000FD1287901280CD8D6F8B802826830460B
:103F400090470446E888204306D13046FFF7B0FB8F
:103F500002E03046FFF77AFB204670BD7047000054
:103F6000004870476C0500202DE9F04F0C780025C3
:103F700030F8243048F68F121340CA78002A7DD0DA
:103F8000012A7CD0022A02D0032A79D0012548F2E6
:103F90008002134320F824300E7830F8263048F69B
:103FA0008F7423403343134320F826300B7B48F2B1
:103FB000C00A48F6BF774CF280094BF68F764FF671
:103FC000FF7B4FF4004EE3B3CB7891F800C0022B97
:103FD00030F82C307ED048F68F6803EA080313438C
:103FE00020F82C30B0F8503091F800C0034403EBB7
:103FF000CC03B1F808C02CF0010CA3F800C4B0F851
:10400000503091F800C0034403EBCC03B1F80AC070
:104010002CF0010CA3F804C44B7891F800C0002BDD
:1040200030F82C304FEA43437ED0002B06DA30F8CC
:104030002C30234043EA090320F82C3091F800C0CB
:1040400000E02EE030F82C305B0606D530F82C303E
:10405000234043EA0A0320F82C30CB780C78012B5C
:1040600030F8243003EA070301D083F02003134320
:1040700020F824300B7830F8231002E008E00DE03F
:1040800009E03140114320F823102846BDE8F08FA5
:1040900043F400737BE743F4C06378E743F4806341
:1040A00075E74B78002BB0F85030034424D00E78DD
:1040B00003EBC603CE8826F00106A3F800640B7854
:1040C00030F82360760608D530F82360264046EAAB
:1040D0000A0600E061E020F82360CB78012B06D0CF
:1040E0000B7830F82310394081F02001CAE70B78B3
:1040F00030F823103940C5E70F7803EBC703CF88AA
:1041000027F00107A3F80474B0F850300F78034487
:1041100003EBC703B3F80674C7F30907A3F80674E3
:1041200003F206430F6900E03DE05FB13E2F0DD87A
:104130004FEA570CFF0701D00CF1010C1F880BEA66
:104140008C2C0CE01F8847F400470AE04FEA571C0C
:10415000FF0601D1ACF1010C1F884EEA8C2C47EA16
:104160000C071F800F7830F827305B0406D530F835
:104170002730234043EA090320F827300B782BB17E
:1041800030F82310314081F400517BE70188314041
:1041900081F440511143018077E7234048F28018B1
:1041A00043EA08031CE7002B06DA30F82C302340E2
:1041B00043EA090320F82C3091F800C030F82C3085
:1041C0005B0606D530F82C30234043EA0A0320F87A
:1041D0002C304B7813B1012B2DD035E0B0F8503096
:1041E0000C78034403EBC403B3F80244C4F309049A
:1041F000A3F802440C6903F202435CB13E2C0ED8D2
:104200004FEA540CE40701D00CF1010C1C880BEAB6
:104210008C2C0DE01C8844F400441C8014E04FEA10
:10422000541CE40601D1ACF1010C1C884EEA8C2C24
:1042300044EA0C04F1E7B0F850300C78034403EB87
:10424000C4030C8AA3F802444B7813B1012B2DD080
:1042500035E0B0F850300C78034403EBC403B3F8F6
:104260000644C4F30904A3F806440C6903F20643A8
:104270005CB13E2C0ED84FEA540CE40701D00CF18F
:10428000010C1C880BEA8C2C0DE01C8844F40044C3
:104290001C8014E04FEA541CE40601D1ACF1010C7F
:1042A0001C884EEA8C2C44EA0C04F1E7B0F850402C
:1042B00023180C7803EBC4030C8AA3F806440C788B
:1042C00030F82430334083F44053134320F8243033
:1042D0000DE72DE9F04391F80C804F780A7848F605
:1042E000BF7C4BF68F7948F2800348F2C0054CF250
:1042F000800648F68F74B8F1000F28D0002F30F8F0
:1043000022704FEA474748D0002F05DA30F8227074
:104310002740374320F822700A7830F822707F0651
:1043200005D530F8227027402F4320F822700D78F1
:1043300030F825202240324320F825200C7830F830
:10434000242002EA0C021A4320F824201AE07FB14C
:1043500030F82260760605D530F8226026402E43DC
:1043600020F822600A7830F8221001EA0C010EE0F1
:1043700030F822506D0405D530F8225025403543E1
:1043800020F822500A7830F8221001EA0901194376
:1043900020F822100020BDE8F083002F05DA30F865
:1043A00022702740374320F822700A7830F82260C4
:1043B000760605D530F8226026402E4320F822608C
:1043C0000E7830F8262022402A4320F826200C7848
:1043D00030F8242002EA09021A4320F82420C1E719
:1043E00030F8581F41F4004101800020704701213E
:1043F00020F8401F0021018081800182084670471B
:1044000030F8401F4BF680729143018000207047C6
:1044100030B54B780A78002B48F68F7530F822308B
:1044200048F2800415D05B0607D530F822302B40C7
:1044300048F2C0052B4320F82230CA78012A1DD04B
:104440000A7830F8221048F6BF73194081F0200135
:1044500011E05B0407D530F822302B404CF2800588
:104460002B4320F822300A7830F822104BF68F7355
:10447000194081F44051214320F82210002030BD22
:1044800010B54A780978002A48F2800330F82120D4
:1044900005D048F6BF74224082F0100204E04BF6CB
:1044A0008F74224082F480521A4320F82120002089
:1044B00010BD00002DE9F04706460C464878097B00
:1044C0004FF0000848F68F7248F2801748F68F6365
:1044D00048F2800A012809D0002971D0E07802282A
:1044E0006FD001286ED00120BDE8F087A569206952
:1044F000854200D9054691B1E17802291ED0206A93
:10450000401B2062207836F820104906B6F850107B
:10451000314401EBC00075D5A0F8065418E1ABB2E8
:10452000E2883046616900F0EFFAB6F85000217871
:10453000304400EBC100A0F802540FE1216A81422F
:104540007AD9217836F821001040384326F8210026
:10455000206A401B2062207836F820104FF6FF7743
:10456000490661784FF4004967D511B101292AD075
:1045700030E0B6F85010314401EBC000B0F806143A
:10458000C1F30901A0F8061400F206404DB13E2D1A
:104590000CD86908EA0700D0491C028807EA812183
:1045A0000BE0018841F40041018013E06909EA064B
:1045B00000D1491E028849EA81210A43028009E0AC
:1045C000EFE008E11DE1B6F85020911901EBC000C1
:1045D000A0F806546289ABB23046616900F094FAE3
:1045E0006069284460612169206A884202D9401BC1
:1045F000206202E00546C4F82080607818B10128E6
:104600002BD032E02FE0B6F850002178304400EB98
:10461000C100B0F80214C1F30901A0F8021400F2BD
:1046200002405DB13E2D0ED86908EA0700D0491C52
:10463000028807EA81210DE0A0E018E0018841F43A
:104640000041018011E06909EA0600D1491E028893
:1046500049EA81210A43028007E0B6F85000217838
:10466000304400EBC100A0F80254228971E011B17E
:10467000012927D02DE0B6F85010314401EBC000DD
:10468000B0F80214C1F30901A0F8021400F20240CC
:104690004DB13E2D0CD86908EA0700D0491C0288AC
:1046A00007EA81210BE0018841F40041018010E01C
:1046B0006909EA0600D1491E028849EA81210A43B4
:1046C000028006E0B6F85010314401EBC000A0F8BB
:1046D00002542289ABB23046616900F015FA606974
:1046E000284460612169206A884202D9401B206207
:1046F00002E00546C4F82080607810B1012836D069
:1047000026E0B6F850002178304400EBC100B0F844
:104710000614C1F30901A0F8061400F206404DB1D9
:104720003E2D0CD86908EA0700D0491C028807EA28
:1047300081210BE0018841F40041018008E0690912
:10474000EA0600D1491E028849EA81210A43028013
:104750006289ABB23046616900F0D6F9217836F84B
:10476000210048F6BF72104080F0300053E0B6F8E8
:1047700050108819217800EBC100CDE6227836F878
:104780002200184040EA0A0026F82200B6F850003D
:104790002278304400EBC2008BB2A0F802342289A8
:1047A000D8E7A06908B9E07878B1217836F8210017
:1047B000184040EA0A0000BF26F82100A1692069DC
:1047C00081421ED9081AA0611DE0217836F8210027
:1047D00010403843F0E7E069A8B1217836F82100AD
:1047E000430401D5430603D444F2400318420AD1DE
:1047F00036F82100104048F2C002104326F821008C
:1048000001E0C4F81880217836F821004BF68F7249
:10481000104080F4405040EA0A0026F821000020B1
:1048200062E60021A0F844104BF68071A0F8401019
:10483000002070470148FDF7B3B800008C07002046
:10484000F0B505464FF6FF742046002241F22106DE
:1048500011E0AB5C80EA03200023070403D586EA5D
:10486000400080B201E004EA40005B1CDBB2082B90
:10487000F3D3521C92B28A42EBD3F0BD70B568B14B
:10488000094D297851B1EFF3108472B6AC22074973
:10489000FBF732FD0020287014B102E0002070BD4B
:1048A00062B6012070BD0000AC000020F0020020C4
:1048B00010B5ACB0B0F80510ADF8001000216B4693
:1048C00010F1070001EB410203EBC20210F8014BAB
:1048D000147150F8044B946050F8044BD46050F8B5
:1048E000084B146150F8044C5461491C50F8044BB7
:1048F000C9B294610729E5D3AC2219460348FBF7F6
:10490000FBFC0349012008702CB010BDF002002010
:10491000AC0000202DE9F84F00250F468146284EB7
:10492000A846284C47E000BF19F80500618849B344
:1049300001292BD09C293BD27054491C88B260803D
:10494000052837D3B6F80310932931D801F10902AD
:1049500092B290422ED1DFF868B08A460BEB02008B
:1049600030F8021C00910AF1050189B20BF1020036
:10497000FFF766FF009981421AD19BF802000128D7
:1049800010D015E0AA2815D1307009E0552804D0C0
:10499000AA2805D0002060800CE070700220FAE7A1
:1049A0000120F8E7BAF1930F02D15846FFF780FFD4
:1049B000A4F802806D1CBD42B6D3BDE8F88F00009C
:1049C00054020020AC000020F0B5384EA3B070783F
:1049D00010B1012023B0F0BDEFF3108372B60020B8
:1049E000334C6D4600EB400104EBC1010F7900EB45
:1049F000800205F8227091ED020A05EB820282ED39
:104A0000010A91ED030A82ED020A91ED040A82ED9A
:104A1000030A0F7D1774497D401CC0B251740728EA
:104A2000E0D303B962B6AA20224F69213C46387010
:104A3000552078708120B870F81C00F043F8B188D8
:104A4000481CB080601D00F03DF8002014F1070400
:104A500000EB8003401C15F82310217005EB830147
:104A6000C0B24B68C4F801308B68C4F80530CA681E
:104A7000C4F809200A7C6273497CA1730F340728AB
:104A8000E6D36E21B81CFFF7DBFE01460948703003
:104A900000F018F80120707072210648FBF7EEFC58
:104AA000002897D00020707093E70000AC00002031
:104AB000040000209C03002001490020487070473A
:104AC000AC0000200170090A41707047B0F8440042
:104AD000704710B510445C0800F5806008D030F8CD
:104AE000022B01F8012B120A01F8012B641EF6D1EA
:104AF000DA0701D00088087010BD11B98021A0F834
:104B00004C1000207047000010B55B1C10445B087F
:104B100000F580600AD000BF11F8012B11F8014B9D
:104B200042EA042220F8022B5B1EF5D110BDFEE7FD
:104B30000907090E002804DB00F1E02080F80014CA
:104B4000704700F00F0000F1E02080F8141D70475E
:104B500088B0FCF743FBFEF7A7FAFEF711F8FDF764
:104B6000E3FFFEF72BF8FEF74BF800260220CDE915
:104B7000026001270497019640F2FF70CDE90560BD
:104B800001A95148FBF753FE08B172B6FEE70222B5
:104B9000012311464C480097FBF777FE08B172B627
:104BA000FEE7002220214848FBF78AFE08B172B6D2
:104BB000FEE74548FBF794FE08B172B6FEE74248AF
:104BC000FCF7C7F908B172B6FEE7002201213E48A2
:104BD000FBF798FD08B172B6FEE73B48FBF790FC87
:104BE00008B172B6FEE73948FDF73AFE394CDFF8F6
:104BF000E090A4F10708A4F10F0508B172B6FEE732
:104C00003348FFF73BFEB8B3EF70FCF7D9FA6860A2
:104C100000204B464FEA080100EB400203EBC202C2
:104C200012795FEA827C05D514F800C04CF0010CC3
:104C300004F800C05FEA427C05D514F800C04CF0CF
:104C4000020C04F800C0D2070A5C06D082B9225CCC
:104C500002F0F70242F0040209E012B9225C5207A6
:104C600006D50E54225C02F0FB0242F008022254E8
:104C7000401CC0B20728CFD3E878C0B1FCF7A0FA37
:104C80006968401A642812D9EE70002041460A5C17
:104C900012B9225C520706D50E54225C02F0FB02C8
:104CA00042F008022254401CC0B20728EFD3FDF79F
:104CB000D3FFA8780028A3D0AE70FFF785FE0028A8
:104CC0009ED0AF709CE70000BC04002020050020AF
:104CD00010040020C30000204FF04070E1EE100AE5
:104CE00070470000000048410000A0410000E04182
:104CF000000048410000F04100004841000102036B
:104D000004050607080C10141820304000000000AD
:104D10000000000001020304060708093C4D0008DA
:104D2000000000205402000014020008184E000881
:104D300054020020442900007002000841021701BB
:104D40000217020217030217040A1505610A150665
:104D5000180A160791011FAA10CC1324F413FD3270
:104D6000140831341B083D041A65041AC9041A0DCD
:104D7000141A0D0817040309041201140202021682
:104D800040830440571D020102033D0A161ADD311B
:104D9000132D041B0829041A25041A51041A71043E
:104DA00041130A0632022A407C1C0902434B111DA2
:104DB000803209048D1A020B1305241610010524F4
:104DC00001100901042402020524061701070582C7
:104DD00003081C100904812A0AF11C050102432C56
:104DE000070581070938442A40072A8107112B0942
:104DF00007440A3B04441369331C08B532F44A35AE
:104E0000E81A09101A2D101A8B04C11A51181A45E4
:084E1000041A5D041A390400C4
:04000005080001D915
:00000001FF
